:020000040000FA
:2B000000FFFF62FF2500FFFFFFFFFFFFFFFFFFFFFFFFFFFFFFFFFFFFFFFFFFFFFFFFFFFFFFFFFFFFFFFFFFFFFFFFFF76
:2B002B00601886611886611886611886611886611886010000000018866118866118866118866118866118866180E74F
:2B005600401004411004411004411004411004411004010000000010044110044110044110044110044110044180E71C
:2B008100000000000000000000000000000000000000000000000000000000000000000000000000000000000080E7ED
:2B00AC00000000000000000000000000000000000000000000000000000000000000000000000000000000000080E7C2
:2B00D700000000000000000000000000000000000000000000000000000000000000000000000000000000000080E797
:2B010200000000000000000000000000000000000000000000000000000000000000000000000000000000000080E76B
:2B012D00000000000000000000000000000100000000000000000000000040000000000000000000000000000080B234
:2B015800000000000000000000000000000000000000000000000000000000000000000000000000000000000008EF85
:2B018300000000000000000000000000000000000000000000000000000000000000000000000000000000000080E7EA
:2B01AE00000000000000000000000000000000000000000000000000000000000000000000000000000080000000E7BF
:2B01D900080000000000000000000000000000000000000000000000000000000000000000000000000000000080EF84
:2B020400000000000000000000000000000000000000000000000000000000000000000000000000000000000080E768
:2B022F00020000000000000000000000000000000000000000000000000000000000000000000000000000000080E53D
:2B025A00000000000000000000000000000000000000000000000000000000000000000000000000000000000080E712
:2B028500000000000000000000000000000000000000000000000000000000000000000000000000000000000080E7E7
:2B02B000080000000000000000000000000000000000000000000000000000000000000000000000000000000008E72C
:2B02DB00000000000000000000000000000000000000000000000000000000000000000000000000000000000080E791
:2B030600000000000000000000000000000000000000000000000000000000000000000000000000000000000080E765
:2B033100000000000000000000000000000000000200000000000000000000000800000000000000000080000080C5D2
:2B035C00000000000000000000000000000000000000000000000000000000002000000000000000000000000080E5F1
:2B038700000000000000000000000000000000200080000000000000000802800000000000000000000000001000EE23
:2B03B200020000000000000000000000000000000000000000000000000000000000000000000000000000000008ED29
:2B03DD00000000000000000000000000000000000000000000000000000000000000000000000000000000000080E78E
:2B040800000000000000000000000000000000000000000000000000000000000000000000000000000000001080E653
:2B043300000000000000000000000000000000200080020000000000000C03800000000000000000000000000000B9B4
:2B045E00001000000001000000000000000000000000000000000000000000000200000000000000000000200080F4CC
:2B048900020020100200000000000000001000000000000000000080200000040000000000000000000080000008D800
:2B04B400000000000008800008800008000008800008000000000000000200000020000220000220000200000280E7A4
:2B04DF00800008800008800008800008800008800008000000000020000220000220000220000220000220000280E78F
:2B050A00000000000000000000000000000000000000000000000000000000000000000000000000000000000080E75F
:2B053500020000000000000000000000000000000000000000000000000000000000000000000000000000000008EDA4
:2B056000020000000000000000000000000000000000000000000000000000000000000000000000000000000080E509
:2B058B00040000000000000000000000000000000000000000000000000000000000000000000000000000000080E3DE
:2B05B600020000000000000000000000000000000000000000000000000000000000000000000000000000000080E5B3
:2B05E100020000000000000000000000000000000000000000000000000000000000000000000000000000000080E588
:2B060C00020000000000000000000000000000000000000000000000000000000000000000000000000000000008EDCC
:2B063700000000000000000000000000000000000000000000000000000000000000000000000000000000000080E731
:2B066200000000000000000000000000000000000000000000000040000000000000000000000000000000000080A30A
:2B068D00000000000000000000000000000000000000000000000058000000000000000000000000000000000000BA30
:2B06B800020000000000000000000000000000000000000000000048000000000000000000000000000000000088A1A4
:2B06E300000000000000000000000000000000000000000000000050000000000000000000000000000000000080B26A
:2B070E00000000000000000000000000000000000000000000000048000000000000000000000000000000000000ABCD
:2B073900000000000000000000000000000000000000000000000048000000000000000000000000000000000000ABA2
:2B076400000000000000000000000000000000000000000000000040100000000000000000000000000000000080B3E7
:2B078F000200000000000000000000000000000000000000000000C0000000000000000000000000000000000088A94C
:2B07BA00000110000100000000000000000100000000000000000000000000000000000000000000000000000080E79A
:2B07E500600116600100000000000000600100600600000000000000000000000000000000000000000000000080E1E9
:2B081000200112200100000000000000200100202000000000000000000000000000000000000000000000000080C5C3
:2B083B004201144001000000000000004001004003000000000000000000000000000000000000000000000000089ED0
:2B086600220112200100000000000000200100A00101000000000000000000000000000000000000000000000088C402
:2B089100240112200100000000000000200100A00100000000000000000000000000000000000000000000000010CB47
:2B08BC00020130000300000000000000000300800100000000000000000000000000000000000000000000000088D6F9
:2B08E700421130400300000000000000400300802100000000000000000000000000000000000000000000000088951F
:2B091200020110000100000000000000000100000400000000000040000000000004000000000000000040000008E92C
:2B093D00600116600100000000000000600100600200000000000058000000800100000000000000000058000000BC07
:2B096800200112200100000000000000200100200000000000000048000000800000000000000000000048000000CFF0
:2B099300400114400100000000000000400100408300000000000050000000001D00000000000000000050000000C81A
:2B09BE00200112200100000000000000200100A00100000000000048000000801600000000000000000048000008B911
:2B09E900220112200100000000000000200100A00301000000000048000000800E00000000000000000048000000802A
:2B0A1400020310000100000000000000000100800100000000000040100000000600000000000000000040100000B8C1
:2B0A3F004203144111000000000000004023008021000000000000D00000000087000000000000000000D00000008333
:2B0A6A00020110000100000000000000000100000000000000000000000000000000000000000000000040000080A1EB
:2B0A9500600116600100000000000000600100000000000000000000000000000000000000000000000058000088B26B
:2B0AC000200112200100000000000000200100000000000000000000000000000000000000000000000048000000ABA3
:2B0AEB00400114400100000000000000400100000000000000000000000000000000000000000000000050000080B287
:2B0B1600200112200100000000000000200100000000000000000000000000000000000000000000000048000000AB4C
:2B0B4100200112200100000000000000200100000000000000000000000000000000000000000000000048000088A3A1
:2B0B6C00020330000300000000000000000300000000000000000000000000000000000000000000000040100080B1A2
:2B0B97000203340003000000000000000003000000000000000000000000000000000000000000000000C0000000E153
:2B0BC200020130000100000000000000000200000000000000000000000000000400000000000000000080000000B09E
:2B0BED00620116600100000000000000E00100000000000000000000000000800500000000000000000078000000CF56
:2B0C1800200158200100000000000000000400000000000000000000000000800400000000000000000000000008BACD
:2B0C430040011C400100000000000000C00300000000000000000000000000000500000000000000000070020080E549
:2B0C6E00200190200100000000000000000000000000000000000000000000800400000000000000000000000080BACB
:2B0C9900200118200100000000000000000800000000000000000000000000800400000000000000000000100000A298
:2B0CC400020110000100000000000000800100000000000000000000000000000400000000000000000060000088C7BD
:2B0CEF00001118101100000000000000800100000000000000000000000000000C01000000000000000060000000C5DD
:2B0D1A00800210000200000000000000000100000000000000000000000040000C00000000000000000000000080EF5E
:2B0D4500E00016E001000000000000006001006000010000000000000000588005000000000000000000980100809E56
:2B0D7000800112000400000000000000200100802000000000000000000048000601000000000000000020000000A8E9
:2B0D9B00C20914C00100000000000000400100400000000000000000000050000F000000000000000000100100089FF5
:2B0DC600800412000800000000000000200100004000000000000000000048000400000000000000000000000000A710
:2B0DF100800112000000000000000000200100800000000000000000000048001600000000000000000020400000BF26
:2B0E1C00800010800100000000000000000100800000000000000000000040100400000000000000000020000000CCD9
:2B0E47008001118101000000000000000023008020000000000000000000C00006040000000000000000200800089C13
:2B0E7200820230000200000000000000000200001000000000000000000440000A00000000000000000080000000DFE0
:2B0E9D00E20016E00100000000000000E00100600200000000000000800558800300000000000000000078000000FA3C
:2B0EC800820918000000000000000000000400800000000000000000800448000600000000000000000000080080C7B7
:2B0EF300C2019CC00500000000000000C00100404000000000000000000550000F02000000000000000070000080C554
:2B0F1E0080005000000000000000000000080000400000000000000080044800420000000000000000000001000891E8
:2B0F4900800538000800000000000000000000800000000000000000800448000E00000000000000000000000000EF6F
:2B0F7400800010800100000000000000800100800000000000000000000441100200000000000000000060000080B257
:2B0F9F00800119900100000000000000800100802000000000000000000CD0000604000000000000000060000000BCD9
:2B0FCA001A80000000000000000000000080008000000000000000000040002000000000000000000000004000009131
:2B0FF50000000008820000000000000000020000000000000000008040000000000200000000000000008000008087FC
:2B102000000000000008800008800008000008000008000000000000000000000020000220000220000200000200CD48
:2B104B00800008800008800008800008800008800008000000000020000220000220000220000220000220000280E717
:2B107600200282000230000000000000200800000000000000000028000088000000000000000000000080000080D6CB
:2B10A100000000000000000000000000000000000000000000000000000000000000000010000110004000051080F638
:2B10CC00000000000000000000000000000000000000000000000000000000000000000000000000000000000080E792
:2B10F700000000000000000000000000000000000000000000000000000000000000000000000000000000000080E767
:2B112200200282000220000000000000200800000000000000000008000088000000000010000110004080051080F4BA
:2B114D00400115500100000000000000400400000000000000000000000000000104000000000000000010400080B205
:2B117800000000000000000000000000000000001000000000000000000000000000000000000000000000000080E6D6
:2B11A3000000000A4000000000000000000000000000000000000000300000008000000000000000000000000080D1D6
:2B11CE00400004400000000000000000400000000000000000000000000000000000000000000000000000000080E7CB
:2B11F90000000000000000000000000000000000D000000000000000000000000001000000000000000000040080FE78
:2B122400000000000000000000000000000000800600000000000000000000000204000000000000000000000000EB28
:2B124F00000000000000000000000000000000000000000000000000000000000000000000000000000000000080E70D
:2B127A00000000000000000000000000004000000000000000000000000000000000000000000000000000100080F386
:2B12A500000000000000000000000000000000000000000000000000000000000000000000000000000000000080E7B7
:2B12D000002100000000000000000000000000000000000000000000000400080000000000000000000000000080B88E
:2B12FB00000000000000000000000000000000000001000000000000000000000000000000000000000000000080F750
:2B132600000000000000000000000000000000000001000000000000000000000000000000000000000000000080F724
:2B135100000000000000000000000000000000000000000000000000000000002000000000000000000000000080E5EC
:2B137C00000000008000000000000000000000000000000000000000022000020000000000000000000000220080CF31
:2B13A7000000000000000000000000000000000000000000000000000000000000000000000000000000000000C0A3B8
:2B13D200000000000004000000000000000000000000000000000000000100000000000000000000000000000080B6B5
:2B13FD00000000000000000000000000000000000000000000000000000000000000000000000000000000000080E75E
:2B142800000000000000000000000000000000000000000000000000000000000000000800000000000000000000E7AA
:2B145300080000000000000000000000000000000000000000000000000000000000000000000000000000000080EFF7
:2B147E00000000000000000000000000000000000000000000000000000000000000000000000000000000000080E7DC
:2B14A900000000000000000000000000000000000000000000000000000000000000000000000000000000000080E7B1
:2B14D400000000000000000000000000000000000000000000000000000000000000000000000000000000000080E786
:2B14FF00000000000000000000000000000000000000000000000000000000000000000000000000000000000080E75B
:2B152A000800000000000000000000000000000000000000000000000000000000000000000000000000000000C0AB23
:2B155500000000000000000000000000000000000000000000000000000000000000000000000000000000000080E704
:2B158000000000000000000000000000000000000000000000000000000000000000000000000000000000000080E7D9
:2B15AB00000000000000000000000000000000000020000000000000000000000080000800000000000000000080C528
:2B15D600000000000000000000000000000000000000000000000000000000000000000000000000000000000080E783
:2B160100000000000000000000000000000000000080100000000000000800000000000000000000000000001080F6A0
:2B162C00020000000000000000000000000000000000000000000000000000000000000000000000000000000008ED9C
:2B165700000000000000000000000000000000000000000000000000000000000000000000000000000000000008EF71
:2B168200000000000000000000000000000000000000000000000000000000000000000000000000000000001090F7A6
:2B16AD00000000000000000000000000000000000080100000000000000800000000000000000000000000000008FF73
:2B16D800000000000020001000000001000000000000000000000000000800000020000002000000000000000088DE26
:2B170300020000000020000020100200000000000000000000000000000880200000000800000000000000000088FF30
:2B172E00800008800000000000000008800008800008000000000020000000000200000020000220000220000280E781
:2B175900800008800008800008800008800008800008000000000020000220000220000220000220000220000280E702
:2B178400000000000000000000000000000000000000000000000000000000000000000000000000000000000080E7D3
:2B17AF00020000000000000000000000000000000066000000000000000000000000000000000000000000000008EBB4
:2B17DA00020000000000000000000000000000000002100000000000000000000000000000000000000000000080D57B
:2B180500040000000000000000000000000000000014000000000000000000000000000000000000000000000080B26E
:2B18300002000000000000000000000000000000001A020000000000000000000000000000000000000000000000DE91
:2B185B0002000000000000000000000000000000003A000000000000000000000000000000000000000000000000FE28
:2B188600020000000000000000000000000000000018000000000000000000000000000000000000000000000088F4A1
:2B18B100000000000000000000000000000000000018020000000000000000000000000000000000000000000000FCF6
:2B18DC00000000000000000000000000000000000040000000000000000000000000000000000000000000000080A37E
:2B190700000000000000000000000000000000000026000000000000000000000000000000000000000000000080A56A
:2B193200020000000000000000000000000000000002040000000000000000000000000000000000000000000008C9B1
:2B195D000000000000000000000000000000000000340000000000000000000000000000000000000000000000809417
:2B19880000000000000000000000000000000000001A000000000000000000000000000000000000000000000000DE3C
:2B19B30000000000000000000000000000000000003A010000000000000000000000000000000000000000000000FDD1
:2B19DE00000000000000000000000000000000000018000000000000000000000000000000000000000000000000FEC8
:2B1A0900020000000000000000000000000000000018020000000000000000000000000000000000000000000088F618
:2B1A3400000000000010000110000100000000000000000000000000000400000000000000000000000000000080A33E
:2B1A5F00000000000016600116600100000000000000000000000000800500000000000000000000000000000000BA2F
:2B1A8A00000000000012200112200100000000000000000000000000800400000000000000000000000000000000AB9C
:2B1AB500000000000014400114400100000000000000000000000000000500000000000000000000000000000008BA95
:2B1AE000020000000012200112200100000000000000000000000000800400000000000000000000000000000000A946
:2B1B0B00020000000012200112200100000000000000000000000000800400000000000000000000000000000000A91A
:2B1B3600020000000010001110010100000000000000000000000000000401000000000000000000000000000080B119
:2B1B6100020000000014410334401100000000000000000000000000000D00000000000000000000000000000000B0BD
:2B1B8C00000000000010000110000100000000000000000000000000000000000000000400000000000000000008AB55
:2B1BB700000000000016600116600100000000000000000000000000000000000000800500000000000000000000BAD6
:2B1BE200000000000012200112200100000000000000000000000000000000000000800400000000000000000000AB43
:2B1C0D00000000000014400114400100000000000000000000000000000000000000000500000000000000000080B2CB
:2B1C3800020000000012200112200100000000000000000000000000000000000000800400000000000000000088A16C
:2B1C6300000000000012200112200100000000000000000000000000000000000000800400000000000000000088A341
:2B1C8E00000000000010010110011100000000000000000000000000000000000000000401000000000000000090A3BF
:2B1CB900000000000034401130400300000000000000000000000000000000000000000D00000000000000000088D99A
:2B1CE400000000000010000110000100000000000000000000000000000000000040000400000000000000000008EF78
:2B1D0F00020000000016600116600100000000000000000000000000000000000058800500000000000000000008EDE7
:2B1D3A00000000000012200112200100000000000000000000000000000000000048800400000000000000000080E7E5
:2B1D6500000000000014400114400100000000000000000000000000000000000050000500000000000000000080E7ED
:2B1D9000000000000012200112200100000000000000000000000000000000000048800400000000000000000080E78F
:2B1DBB00000000000012200112200100000000000000000000000000000000000048800400000000000000000008EFD4
:2B1DE600020000000010001110001100000000000000000000000000000000000040100401000000000000000080E5D4
:2B1E11000200000000100103100103000000000000000000000000000000000000C0000C00000000000000000080E54B
:2B1E3C000200000000200001100001000000000000000000000000000000000000004008000000000000000000009669
:2B1E670002000000001E6001166001000000000000000000000000000000000000188007000000000000000000008B2E
:2B1E9200000000000040200112200100000000000000000000000000000000000008010000000000000000000088936D
:2B1EBD0000000000003C4001144001000000000000000000000000000000000000D0000701000000000000000080FFD1
:2B1EE800000000000000200112200100000000000000000000000000000000000068001000000000000000000000B94A
:2B1F13000000000000802001122001000000000000000000000000000000000000E8010000000000000000000000B92D
:2B1F3E00020000000018000110000100000000000000000000000000000000000060000600000000000000000088E579
:2B1F6900000000000018001114011100000000000000000000000000000000000070080600000000000000000000B7C9
:2B1F94000000000000108002300002000000000000200000000000000000400000A00000000000000000000000808955
:2B1FBF00000000000016E00016E00100000000000026000000000000000058000038801100000000000000000000CAF9
:2B1FEA00000000000012800998000000000000000008000000000000000048000060000200000000000000000080D691
:2B201500020000000014C0011CC005000000000000040800000000000000500000F0201900000000000000000088FBE0
:2B204000000000000012800410000800000000000000000000000000000048000020000000000000000000000000E57A
:2B206B000000000000128001980000000000000000081000000000000000480000E0400204000000000000000080C653
:2B209600000000000010810010800100000000000008000000000000000040100020000200000000000000000000ABD8
:2B20C1000000000000308001199001000000000000080200000000000000C0000060408200000000000000000088879E
:2B20EC000200000000208002300002000000000000000000000000400004400000C0000800000000000000000000FCAB
:2B21170002000000001EE00016E00100000000000026080000000058800558000058800700000000000000000080C91B
:2B214200020000000040800118000400000000000008020000000048800448000060040000000000000000000080C1D0
:2B216D0002000000001CC0095CC00100000000000004000000000050000550000070002700000000000000000000B64D
:2B219800000000000080800050000000000000000000000000000048800448000040018000000000000000000088B3BC
:2B21C300000000000000800518000800000000000008100000000048800448000060000000000000000000000000912F
:2B21EE0000000000001880001080010000000000000800000000004010044110004000060000000000000000008080AA
:2B2219000200000000188001199001000000000000080200000000C0000CD0000060400600000000000000000080FA8F
:2B2244000A0000000000088000000000000000000008000000000000040002000000000004000000000000000000814A
:2B226F0000000000002000000008820000000000000000000000000000008040000020080000000000000000008087AB
:2B229A00800008800000000000000008800008800000000000000000000000000200000020000220000220000200CDCC
:2B22C500800008800008800008800008800008800008000000000020000220000220000220000220000220000280E78B
:2B22F0000000000028022002222000800200000000000000000000088000880000C00000030000000000000000009B45
:2B231B00000000000000000000000000000000000000000000000000000000000000000010000110004000051080F6AB
:2B234600000000000000000000000000000000000000000000000000000000000000000000000000000000000080E705
:2B237100000000000000000000000000000000000000000000000000000000000000000000000000000000000080E7DA
:2B239C00000000000802200222200080000000000000000000000008800088000080000012000110004000051000DE42
:2B23C700000000000014400115500100000000000008100000000000000000000010400104000000000000000000FFC4
:2B23F200000000000008800008800000000000000080000000000000000000000000000000000000000000000000E749
:2B241D000000000000000000000A4000000000000000000000000000000000300000080000000000000000000080D1C1
:2B244800000000000000000000000000000000000000000000000000000000000000000000000000000000000080E702
:2B2473000000000000000000000000000000000000000600000000000000000000003040000000000000000000C09177
:2B249E00000000000000000000000000000000000020100000000000000000000040400000000000000000000080D112
:2B24C900000000000000000000000000000000000000000000000000000000000000000000000000000000000080E781
:2B24F400000000000000040000000000000000000000000000000000000000000000000001000000000000000080F345
:2B251F00000000000000000000000000000000000000000000000000000000000000000000000000000000000080E72A
:2B254A000000000000000021000000000000000000000000000000400080000000000000000000000000000000C0FCC9
:2B257500000000000000000000000000000000000000000000000000000000000000000000000000000000000080E7D4
:2B25A000000000000000000000000000000000000044000000000000000000000000000000000000000000000080E369
:2B25CB00000000000000000000000000000000000000000000000000000000000000000000000000000000000080E77E
:2B25F600000000000000000000008000000000000000000000000000022000020000022002000000000000000080CDA5
:2B262100000000000000000000000010000000000000000000000000000040000000000000000000000000000080B20C
:2B264C00000000000000000000000000000000000000000000000000000000000000000000000000000000000080E7FC
:2B267700000000000000000000000000000000000000000000000000000000000000000000000000000000000080E7D1
:2B26A200100000000000000000000000000000000000000000000000000000000000000000000000000000000008FFF6
:2B26CD00000000000000000000000000000000000000000000000000000000000000000000000000000000000080E77B
:2B26F800000000000000000000000000000000000000000000000000000000000000000000000000000000000080E750
:2B272300000000000000000000000000000000000000000000000000000000000000000000000000000000000080E724
:2B274E00000000000000000000000000000000000000000000000000000000000000000000000000000000000080E7F9
:2B277900000000000000000000000000000000000000000000000000000000000000000000000000000000000080E7CE
:2B27A400000000000000000000000000000000000000000000000000000000000000000000000000000000000080E7A3
:2B27CF00000000000000000000000000000000000000000000000000000000000000000000000000000000000080E778
:2B27FA00000000000000000000000000000000000000000000000000000000000000000000000000000000000080E74D
:2B2825000000000000000000200000000000400000000000000000000000000000000010000000000000000000808018
:2B285000000000000000000000000000000000000000000000000000000000000080000040000440000440000400E72A
:2B287B00000000000000000000000000000000080000000000000000000000000000800000000000000000001400A2F4
:2B28A600020000000000000000000000000000000000000000000000000000000000000000000000000000000008ED10
:2B28D100020000000000000000000000000000000000000000000000000000000000000000000000000000000080E575
:2B28FC00040000000000000000000000000000000000000000000000000000000000000000000000000000000480A782
:2B292700020000000000000000000000000000080000000000000000000000000000800000000000000000001000E407
:2B295200020000000000000000080000000008000000000000000000000000000000000200000000000000000000C77F
:2B297D00020000000000000020000000018200000000000000000080200801040000000000000000000000000008D005
:2B29A800800008800008800000800000000000800008000000000000000000000220000020000220000220000280E77D
:2B29D300800008800008800008800008800008800008000000000020000220000220000220000220000220000280E776
:2B29FE00000000000000000000000000000000000000000000000000000000000000000000000000000000000080E747
:2B2A2900020000000000000000000000000026010000000000000000000000000000000000000000000000000008AEA3
:2B2A54000000000000000000000000000000420000000000000000000000000000000000000000000000000000808312
:2B2A7F0000000000000000000000000000003400000000000000000000000000000000000000000000000000008094E4
:2B2AAA0000000000000000000000000000001A000000000000000000000000000000000000000000000000000000DE09
:2B2AD50000000000000000000000000000005A0000000000000000000000000000000000000000000000000000009AE2
:2B2B0000020000000000000000000000000018000000000000000000000000000000000000000000000000000088F414
:2B2B2B0000000000000000000000000000003C0200000000000000000000000000000000000000000000000000009EA3
:2B2B5600000000000000000000000000000000000000000000000000000000000000000000000000000000000080E7ED
:2B2B8100000000000000000000000000000000000000000000000000000000000000801100000000000000000000FF99
:2B2BAC00020000000000000000000000000000000000000000000000000000000000001000000000000000000008ECF8
:2B2BD700000000000000000000000000000000000000000000000000000000000000000B00000000000000000000D4F4
:2B2C0200000000000000000000000000000000000000000000000000000000000000000200000000000000000080C560
:2B2C2D00000000000000000000000000000000000000000000000000000000000000000004000000000000000080A751
:2B2C5800000000000000000000000000000000000000000000000000000000000000000200000000000000000080C50A
:2B2C8300020000000000000000000000000000000000000000000000000000000000008A00000000000000000088C74B
:2B2CAE00000000000000000000000000000000000000000000000000000000000000000400000000000000000081B3C3
:2B2CD900000000000000000000000000000000000000000000000000000000000000800501000000000000800900B30E
:2B2D0400000000000000000000000000000000000000000000000000000000000000000604000000000000004080C515
:2B2D2F0000000000000000000000000000000000000000000000000000000000000000070000000000000000010889E0
:2B2D5A00020000000000000000000000000000000000000000000000000000000000000C0000000000000000008CE9CB
:2B2D85000200000000000000000000000000000000000000000000000000000000000006000000000000000008109271
:2B2DB0000200000000000000000000000000000000000000000000000000000000000004000000000000000002088B5D
:2B2DDB00020000000000000000000000000000000000000000000000000000000000000604000000000000000889DB55
:2B2E0600000000000000000010000000000000000000000000000000000000000000000000000000000000000008FE8B
:2B2E31000000000000000000160000000000000000000000000000000000000000008029000000000000000000808DAA
:2B2E5C00000000000000000012000000000000000000000000000000000000000000801000000000000000000000DFCA
:2B2E8700000000000000000014000000000000000000000000000000000000000000000500000000000000000080E3A4
:2B2EB200000000000000000012000000000000000000000000000000000000000000802600000000000000000088B203
:2B2EDD00020000000000000012000000000000000000000000000000000000000000800600000000000000000000BA76
:2B2F08000200000000000000100000000000000000000000000000000000000000000006000000000000000000809274
:2B2F3300020000000000000014010000000000000000000000000000000000000000008F00000000000000000000CA03
:2B2F5E00020000000000000010000000000000000000000000000000000000000000000200000000000000000080D6DE
:2B2F8900000000000000000016000000000000000000000000000000000000000000800301000000000000000088B546
:2B2FB400000000000000000012000000000000000000000000000000000000000000000600000000000000000080B0AA
:2B2FDF00000000000000000014000000000000000000000000000000000000000000004F00000000000000000000C59F
:2B300A00000000000000000012000000000000000000000000000000000000000000000200000000000000000080F413
:2B303500000000000000000012000000000000000000000000000000000000000000001E00000000000000000088B9FF
:2B306000020000000000000010000000000000000000000000000000000000000000000200000000000000000080D6DB
:2B308B00020000000000000010010000000000000000000000000000000000000000000604000000000000000080D3AA
:2B30B600020000000000000020000000000030000000000000000000000400000000000000000000000001000081B067
:2B30E10002000000000000001E000000000016000000000000000000800500000000800701000000800900800900DF90
:2B310C00000000000000000000000000000018010000000000000000800400000000000000000000004000004008BBB8
:2B31370000000000000000009C00000000003C000000000000000000000500000000000F04000000000100000180A754
:2B3162000000000000000000000000000000100000000000000000008004000000000000020000000000040000049A0A
:2B318D00000000000000000020100000000078000000000000000000800400000000000800000000000800000800E6ED
:2B31B800020000000000000018000000000010000000000000000000000C00000000000600000000000000000008C7E1
:2B31E300000000000000000018000000000018100000000000000000000C00000000000600000000000C01000A01B3A4
:2B320E00000000000000000020000010000128000000000000000040000040000400000000000000000000000001BBFC
:2B32390000000000000000001E00001660010E000000000000000058000058800500800701000000000000800980DD24
:2B326400000000000000000000000012200118000000000000000048000048800400000000000000000000004080B66A
:2B328F0002000000000000001C04001440013C080000000000000050000050000500008700000000000000000108F82C
:2B32BA00000000000000000040000012200108000000000000000048000048800400004000000000000000000084A3F3
:2B32E500000000000000000000000012200118020000000000000048000048800400000800000000000000000A809239
:2B3310000000000000000000180000100001080000000000000000C00000C0000C00000600000000000000000000D4FB
:2B333B000000000000000000180000300211181000000000000000C00000C0000C00000600000000000000000809EC55
:2B336600020000000000000040000110000110000000000000000040000440000000080400100001100000100080A9EE
:2B339100020000000000000026600116600116000000000000000058800558000018800598800998000098000000BE1A
:2B33BC000200000000000000082001122001120000000000000000488004480000608404000440000400000400008F9F
:2B33E7000200000000000000444001144001140000000000000000500005500000F0000510000110000010000000966A
:2B34120000000000000000000020011220011200000000000000004880044800000080044040000440002040000889DC
:2B343D000000000000000000083001122001120000000000000000488004480000008004800008C0000080000000BBCB
:2B3468000000000000000000080001100001100000000000000000C0000CC0000000000C00000400000000000000ABC8
:2B3493000200000000000000080211344211100100000000000000D0000DD0000000000C80100881100080100000DF08
:2B34BE001A0000000000000000000000080000080000000000000000000002000000000002000000000000000080FD38
:2B34E900000000000000000020010001000221000000000000000080400800404800000000000000000000000000C063
:2B351400800008800008800000000000000000800008000000000000000000000020000020000220000220000200CD21
:2B353F00800008800008800008800008800008800008000000000020000220000220000220000220000220000280E7FE
:2B356A000000000000000000022000222002000000000000000000008AAC0800A8080000100001100040400D1400B868
:2B359500000000000000000000000000000000000000000000000000000000000000000000000000000040000480E760
:2B35C000000000000000000000000000000000000000000000000000000000000000000000000000000000000080E779
:2B35EB00000000000000000000000000000000000000000000000000000000000000000020000220008000080080C5A6
:2B361600000000000000000002200022200200000000000000000000822808002808000010000110004040051400FC8B
:2B36410000000000000000001410014000011C100000000000000000000000000000004004000000000000000000EF99
:2B366C00000000000000000000000000000000000000000000000000000000000020000000222002222002222082C502
:2B36970000000000000000000000000000C000000000000000000000300000000000000000000000000000000080DBBD
:2B36C200000000000000000000000000000000040000000000000010000111000100000100000000000000000080E253
:2B36ED00000000000000000000090000000000040000000000000000000000000000000102000000000000000080DB47
:2B371800000000000000000000000000000008000000000000000000000000000000000001000000000000000000FF7E
:2B374300000000000000000000000000000000000000000000000000002000000000000000000000000000000080E5D6
:2B376E00000000000000000000040000000000000000000000000000000000000000000000000000000000000080E3C9
:2B379900000000000000000000000001000000000000000000000000000000400000000000000000000000000080B78D
:2B37C400000000000000000000000000020000000000000000000000000000000000008000000000000000000080EDEB
:2B37EF00000000000000000000000000000020000000000000000000000000000000000A00000000000000000000E79E
:2B381A000000000000000000000000000000000000000000000000000000000000000002040000000000000000808578
:2B384500000000000000000008000000000000000000000000000000000000000200000000022000022000022000CD1B
:2B387000000000000000000000000000000000000000000000000000000000000000000000000000000000000080E7C6
:2B389B00000000000000000000000000000000000000000000000000000000000000000000000000000000000080E79B
:2B38C600000000000000000000000000000000000000000000000000000000000000000000000000000000000080E770
:2B38F100000000000000000000000000000000000000000000000000000000000000000000000000000000000080E745
:2B391C00000000000000000000000000000000000000000000000000000000000000000000000000000000000080E719
:2B394700401004411004411004411004411004411004010000000010044110044110044110044110044110044180E7F2
:2B397200601886611886611886611886611886611886010000000018866118866118866118866118866118866180E7CF
:02399D00FFFF2A
:00000001FF
