:020000040000FA
:2B000000FFFF62FF2500FFFFFFFFFFFFFFFFFFFFFFFFFFFFFFFFFFFFFFFFFFFFFFFFFFFFFFFFFFFFFFFFFFFFFFFFFF76
:2B002B00601886611886611886611886611886611886010000000018866118866118866118866118866118866180E74F
:2B005600401004411004411004411004411004411004010000000010044110044110044110044110044110044180E71C
:2B008100000000000000000000000000000000000000000000000000000000000000000000000000000000000080E7ED
:2B00AC00000000000000000000000000000000000000000000000000000000000000000000000000000000000080E7C2
:2B00D700000000000000000000000000000000000000000000000000000000000000000000000000000000000080E797
:2B010200000000000000000000000000000000000000000000000000000000000000000000000000000000000080E76B
:2B012D00000010000000000000000000000000000000000000000000000400000000000000000000000000000080B261
:2B015800000000000000000000000000000000000000000000000000000000000000000000000000000000000080E715
:2B018300000000000000000000000000000000000000000000000000000000000000000000000000000000000080E7EA
:2B01AE000000000000000000000000000000000000000000000000000000000000000000000000000000000000A0C5C1
:2B01D900080000000000000000000000000000000000000000000000000000000000000000000000000000000080EF84
:2B020400000000000000000000000000000000000000000000000000000000000000000000000000000000000080E768
:2B022F00000000000000000000000000000000000000000000000000000000000000000000000000000000000080E73D
:2B025A00000000000000000000000000000000000000000000000000000000000000000000000000000000000080E712
:2B028500000000000000000000000000000000000000000000000000000004000000000000000000000000000080A723
:2B02B000080000000000000000000000000000000000000000000000000000000000000000000000000000000080EFAC
:2B02DB00000000000000000000000000000000000000000000000000000000000000000000000000000000000080E791
:2B030600000000000000000000000000000000000000000000000000000000000000000000000000000000000080E765
:2B033100000000400000000000000000000000000000000000000090000800000080000800000800000000000000B683
:2B035C00000000000000000000000000000000000000000000000000000000000000000000000000000000000080E70F
:2B038700000000000000000000000000000000000080000000000000002000000008000000000000000000001180FD15
:2B03B200020000000000000000000000000000000000000000000000000000000000000000000000000000000008ED29
:2B03DD00000000000000000000000000000000000000000000000000000000000000000000000000000000000080E78E
:2B040800000000000000000000000000000000000000000000000000000000000000000000000000000000001180F741
:2B043300000000000000000000000000000000000080020000000000002000000008000000000000000000000080EF85
:2B045E00001000000000000000000000040000000000000000000080000200000000200000000001000000000000F0CC
:2B048900020220101200000000000000000000000000000000000000000000000080000000000000000000000088DE1C
:2B04B400000000000008800008800000800008800008000000000000000020000200000220000020000220000280E70E
:2B04DF00800008800008800008800008800008800008000000000020000220000220000220000220000220000280E78F
:2B050A00000000000000000000000000000000000000000000000000000000000000000000000000000000000080E75F
:2B053500020000000000000000000000000000000000000000000000000000000000000000000000000000000008EDA4
:2B056000020000000000000000000000000000000000000000000000000000000000000000000000000000000008ED79
:2B058B00040000000000000000000000000000000000000000000000000000000000000000000000000000000090F2BF
:2B05B600020000000000000000000000000000000000000000000000000000000000000000000000000000000008ED23
:2B05E100020000000000000000000000000000000000000000000000000000000000000000000000000000000008EDF8
:2B060C00020000000000000000000000000000000000000000000000000000000000000000000000000000000008EDCC
:2B063700000000000000000000000000000000000000000000000000000000000000000000000000000000000080E731
:2B066200000000000000000000000000000000000000000000000000000000000000000000000000000000000080E706
:2B068D00000000000000000000000000000000000000000000000000800104000000000000000000000000000000BEFF
:2B06B800020000000000000000000000000000000000000000000000801000000000000000000000000000000088E419
:2B06E300000000000000000000000000000000000000000000000000000D00000000000000000000000000000000B22D
:2B070E0000000000000000000000000000000000000000000000000080060000000000000000000000000000000089B1
:2B0739000000000000000000000000000000000000000000000000008016000000000000000000000000000000008877
:2B076400000000000000000000000000000000000000000000000000000604000000000000000000000000000080C11F
:2B078F000200000000000000000000000000000000000000000000000007000000000000000000000000000000089A94
:2B07BA00000110000100000000000010000000000400000000000000000000000000000000000000000000000080A3CB
:2B07E500600116600100000000000016000000600200000000000000000000000000000000000000000000000080A574
:2B081000200112200100000000000012000000208000000000000000000000000000000000000000000000000080CF68
:2B083B00420114400100000000000014000000400100000000000000000000000000000000000000000000000008BCE1
:2B086600200112200100000000000012000000A00300000000000000000000000000000000000000000000000000FC62
:2B089100200112200100000000000012000000A00300000000000000000000000000000000000000000000000000FC37
:2B08BC00004110104100000000000010100000800101000000000000000000000000000000000000000000000000EEDF
:2B08E700000330000300000000000030000000800100000000000000000000000000000000000000000000000000FE01
:2B091200020110000100000000000010000000000000000000000000000000000000000000000000000000000008EDA1
:2B093D00600116600100000000000016000000000000000000000000000000000098010000000000000000000080FF89
:2B096800200112200100000000000012000000000000000000000000000000000020010000000000000000000080C499
:2B099300400114400100000000000014000000000000000000000000000000000090000000000000000000000000F609
:2B09BE00220112200100000000000012000000000000000000000000000000000000000000000000000000000008EDB1
:2B09E900220112200100000000000012000000000000000000000000000000000020100000000000000000000080D7F4
:2B0A14000401110401010000000000100400000000000000000000000000000000204000000000000000000000808126
:2B0A3F0002033040030000000000003000000000000000000000000000000000002000000000000000000000008087BD
:2B0A6A00020110000100000000000010000000000000000000000000000000000040000000000000000000000080A1DC
:2B0A9500620116600100000000000016000000000000000000000000000000000058000000000000000000000088B0B6
:2B0AC000200112200100000000000012000000000000000000000000000000000048000000000000000000000000ABB2
:2B0AEB00400114400100000000000014000000000000000000000000000000000050000000000000000000000080B2B4
:2B0B1600200112200100000000000012000000000000000000000000000000000048000000000000000000000000AB5B
:2B0B4100220112200100000000000012000000000000000000000000000000000048000000000000000000000088A1B0
:2B0B6C00000111044100000000000010100000000000000000000000000000000040000000000000000000000080A384
:2B0B9700400334400300000000000034000000000000000000000000000000000040080000000000000000000080ABD2
:2B0BC2008001000001000000000000000000000000000000000000000000020000400000000000000000000000008BB9
:2B0BED00E0833E68010000000000003E080000600600000000000000800700000058000000000000000000000000E167
:2B0C1800020018200100000000000000000000200000000000000000000600000048000000000000000000000008CF31
:2B0C4300C0411C44010000000000009C000000408300000000000000000701000050000000000000000000000080A647
:2B0C6E00800550200100000000000040000000A00100000000000000000400000048000000000000000000000000AB8D
:2B0C9900800310200100000000000020000000A00101000000000000000C02000048000000000000000000000080DF05
:2B0CC400020918000101000000000018000000800101000000000000000600000040000000000000000000000008D622
:2B0CEF00000198000300000000000018000000800100000000000000001E00000050080000000000000000000000E649
:2B0D1A00000100000000000000000010000000000200000000000040000602000000000000000400000000000080834C
:2B0D450060013EE883000000000000160000006000000000000000588007000000F8200000800500000000000000A7E0
:2B0D7000200118000800000000000012000000001000000000000048000000000000000000800400000000000080FFAA
:2B0D9B0042011CC40100000000000014000000C00200000000000050000701000070010000000500000000000088924B
:2B0DC600200110000400000000000012000000800000000000000048000600000000100000800400000000000000CC8D
:2B0DF100200170000000000000000012000000004000000000000048004E00000080000000800400000000000080F6E4
:2B0E1C00004198800100000000000010040000800001000000000040000402000060000000000400000000000080FD95
:2B0E4700400318800100000000000034000000800000000000000050080C00000060000000008400000000000008D4CC
:2B0E7200820110000000000000000000000000008000000000000040000400000000000400000400000000000000E511
:2B0E9D00E28316E0830000000000003E0800006002000000000000588005000000F8A00500800500000000000000DACB
:2B0EC800020012000000000000000080000000804000000000000048800400000000800400800400000000000080D87F
:2B0EF300C24114C0050000000000001C000000400200000000000050000500000070400500000500000000000000F893
:2B0F1E00800512000000000000000040000000000000000000000048800400000000810400800400000000000088C6AE
:2B0F4900800112000800000000000000000000804000000000000048800400000000800400800400000000000000C38B
:2B0F740000011090010000000000001800000080000100000000004000040000006000040000040000000000000089E2
:2B0F9F00000934800100000000000018000000800000000000000040088400000060008400008500000000000080FA22
:2B0FCA00021000000200000000000000080000800000000000000000000000000000004000004000000000000000C61A
:2B0FF50000000001000000000000002000000000000000000000008040400000008004080000000000000000000084A0
:2B102000000000000008800008800000800008000008000000000000000020000200000020000020000220000200CDB2
:2B104B00800008800008800008800008800008800008000000000020000220000220000220000220000220000280E717
:2B1076002003802C02000000000028020000000000000C0000000088000000000000800000800800000000000000DCDC
:2B10A100000000000000000000000000000000000000000000000000000000000000040110000100001110050080F672
:2B10CC00000000000000000000000000000000000000000000000000000000000000000000000000000000000080E792
:2B10F700000000000000000000000000000000000000000000000000000000000000000000000000000000000080E767
:2B112200200280280200000000000802000000000000080000000088000000000000840110800900001110050000DE1A
:2B114D00000000000000000000000000000000000000000000000000000200000000000000000000000000000080C530
:2B117800008100088000000000000000080000000001000000000000000004000000400000000400000000000080A2D0
:2B11A300005000054000000000000000040000001000000000000000004000000000140000000000000000000080F6AE
:2B11CE00000000000000000000000000010000000000000000000000008000000000000000004000000000000080EACB
:2B11F900100000000000000000000000000000404001000000000000000001000000400000000000000000000080F386
:2B122400000000000000000000000000000000804800000000000000000000000000020000000000000000000080E96C
:2B124F00000000080000000000000000000000000000000000000000200000000000000000000000000000000080CFFD
:2B127A00000000000000000000000000040000000000000000000000000000000000100000000000000000000080F3C2
:2B12A500000000000000000000000000000000000000000000000000000000000000000000000000000000000080E7B7
:2B12D000100000000000000000000000000000000000000000000000000000000000000000000000000000000080F76C
:2B12FB00000000000000000000000000000000000000000000000000000000000000000000000000000000000080E761
:2B132600000000000000000000000000000000402000000000000000000001000000000000000000000000000080B506
:2B135100000000800000000000000000000000000000000000000000000000000020000000000000000000000000CD04
:2B137C00800880000800000000000080000000000000000000000000000000000000000200000000000000000000CDE7
:2B13A700080000000000000000000000000000000000000000000000000000000000000000000000000000000080EFA4
:2B13D200000000000000000000000000400000000000000000000010000000000000000000000000000000000080B66A
:2B13FD00000000000000000000000000000000000000000000000000000000000000000000000000000000000080E75E
:2B1428000000000000000000000000000000000000000000000000000000000000000000000000000000000000C0A336
:2B145300000000000000000000000000000000000000000000000000000000000000000000000000000000000080E707
:2B147E00000000000000000000000000000000000000000000000000000000000000000000000000000000000080E7DC
:2B14A900000000000000000000000000000000000000000000000000000000000000000000000000000000000080E7B1
:2B14D400000000000000000000000000000000000000000000000000000000000000000000000000000000000080E786
:2B14FF00000000000000000000000000000000000000000000000000000000000000000000000000000000000080E75B
:2B152A00000000000000000000000000000000000000000000000000000000000000000000000000000000000080E72F
:2B155500000000000000000000000000000000000000000000000000000000000000000000000000000000000080E704
:2B158000000000000000000000000000000000000000000000000000000000000000000000000000000000000080E7D9
:2B15AB00000000000000000000000000000004000000000000000000000000008000000000000000000000000080AF62
:2B15D600000000000000000000000000000000000000000000000000000000000000000000000000000000000080E783
:2B160100000000000000000000000000000080000000000000000000000000000000000000000000000002001100D754
:2B162C00020000000000000000000000000000000000000000000000000000000000000000000000000000000008ED9C
:2B165700000000000000000000000000000000000000000000000000000000000000000000000000000000000008EF71
:2B168200000000000000000000000000000000000000000000000000000000000000000000000000000000001190E6B6
:2B16AD00000000000000000000000000000080000000000000000000000000000000000000000000000003000088DF28
:2B16D800000000000000040000000000000008000000000000000000000000040000000000100000000000000088F748
:2B170300020000000000001200000000000201000000000000000080400080004800000000000000000000000088B8DC
:2B172E00800008800000000008800008000000800008000000000000000200000020000200000220000220000280E79F
:2B175900800008800008800008800008800008800008000000000020000220000220000220000220000220000280E702
:2B178400000000000000000000000000000000000000000000000000000000000000000000000000000000000080E7D3
:2B17AF00020000000000000000000000000000000000000000000000000000000000000000000000000000000008ED18
:2B17DA00020000000000000000000000000000000000000000000000000000000000000000000000000000000080E57D
:2B180500040000000000000000000000000000000000000000000000000000000000000000000000000000000080E351
:2B183000020000000000000000000000000000000000000000000000000000000000000000000000000000000080E526
:2B185B00020000000000000000000000000000000000000000000000000000000000000000000000000000000080E5FB
:2B188600020000000000000000000000000000000000000000000000000000000000000000000000000000000008ED40
:2B18B100000000000000000000000000000000000000000000000000000000000000000000000000000000000080E7A5
:2B18DC00000000000000000000000000000040000000000000000000000000000000000000000000000000000080A37E
:2B1907000000000000000000000000000000060000000000000000000000000000000000000000980100000000809FF7
:2B193200020000000000000000000000000002000000000000000000000000000000000000000008040000000088C131
:2B195D00000000000000000000000000000054000000000000000000000000000000000000000050000000000080A794
:2B19880000000000000000000000000000001A010000000000000000000000000000000000000068080000000080B970
:2B19B30000000000000000000000000000003A0000000000000000000000000000000000000000E80000000000009255
:2B19DE00000000000000000000000000000018000000000000000000000000000000000000000060400000000000D84E
:2B1A090002000000000000000000000000001C020000000000000000000000000000000000000060000000000088D0DA
:2B1A3400000000000010000000000000000100000000000000000040000040000400000000000000000000000080A3CF
:2B1A5F00000000000016000000000000600100000000000000000058000058800500000000000000000000000000BAF6
:2B1A8A00000000000012000000000000200100000000000000000048000048800400000000000000000000000000AB3F
:2B1AB500020000000014000000000000400100000000000000000050000050000500000000000000000000000008B84A
:2B1AE000000000000012000000000000200100000000000000000048000048800400000000000000000000000000ABE9
:2B1B0B00000000000012000000000000200100000000000000000048000048800400000000000000000000000000ABBD
:2B1B3600000000000010040000000000000100000000000000000040100040100400000000000000000000000080A7A4
:2B1B61000000000000300000000000000001010000000000000000C00000C0004500000000000000000000000080845E
:2B1B8C00020000000010000000000000000100000000000000000040000040000400000000000000000000000008A9E6
:2B1BB700000000000016000000000000600100000000000000000058000058800500000000000000000000000000BA9D
:2B1BE200000000000012000000000000200100000000000000000048000048800400000000000000000000000000ABE6
:2B1C0D00000000000014000000000000400100000000000000000050000050000500000000000000000000000080B280
:2B1C3800020000000012000000000000200100000000000000000048000048800400000000000000000000000088A10F
:2B1C6300000000000012000000000000200100000000000000000048000048800400000000000000000000000088A3E4
:2B1C8E00000000000010000000000000000100000000000000000040100040000401000000000000000000000090B243
:2B1CB9000000000000101000000000004001010000000000000000D0000050040D00000000000000000000000008FE67
:2B1CE400000000000000000000000000000140000000000000000040000040000400000000000000000000000008FE0A
:2B1D0F0002000000003E080000000000600126000000000000000058000058800500000000000000000000000008D0CD
:2B1D3A00000000000080000000000000200108000000000000000048000048800400000000000000000000000000922F
:2B1D650000000000001C000000000000400104080000000000000050000050000500000000000000000000000000F253
:2B1D90000000000000000000000000002001001000000000000000480000488004000000000000000000000000008A59
:2B1DBB00000000000040000000000000200128000000000000000048000048800400000000000000000000000008FC5C
:2B1DE6000200000000180000000000000003080000000000000000400000401004010000000000000000000000808315
:2B1E11000200000000180000000000004001080200000000000000500400D0000C00000000000000000000000080E7AA
:2B1E3C00020000000010000000000000000118080000000000000040000040000400000040000000010000000000F58E
:2B1E670002000000001600000000000060011E000000000000000058000058800500000058000098000000000000850F
:2B1E9200000000000012000000000000200100100000000000000048000048800400000048000008200000000088D7FF
:2B1EBD0000000000001400000000000040013C0000000000000000500000500005000000500000D0000000000080C95B
:2B1EE80000000000001200000000000020011800000000000000004800004880040000004800006800000000008090B0
:2B1F13000000000000120000000000002001380800000000000000480000488004000000480000E82000000000009A32
:2B1F3E00020000000010040000000000000310100000000000000040000040000400000040000060400000000008ECE7
:2B1F6900000000000034000000000000000110000000000000000040040040044400000050040060000000000080E325
:2B1F9400000000000010000100000000000000080000000000000000000060000000000040000000200000000080EDDC
:2B1FBF00000000000016600100000000E0831E0000000000000000F82000F8A00F02000058000018000000000080D678
:2B1FEA00000000000012200100000000800101000000000000000060400000401000000048000020000000000080E758
:2B201500020000000014400100000000C0037C0000000000000000F00000F00007000000500000100800000000089221
:2B204000000000000012200100000000000120000000000000000040000060010000000048000000400000000000FBFD
:2B206B000000000000122001000000000009200000000000000000400200600020000000480000A000000000000098AC
:2B209600000000000010000100000000800918000000000000000060020040020600000040000020400000000000859E
:2B20C100000000000014100101000000800118000000000000000060000040000600000040040020000000000008899A
:2B20EC000200000000000001000001000000100000000000000000000000600000000000000000000000000000809243
:2B21170002000000003E680100600100E083160000000000000000F82000F8A00F020000F8200018400000000000CD1C
:2B2142000200000000002001002001008001130000000000000000604000004000000000000100201000000000008801
:2B216D0002000000009C400100400100C003140000000000000000F00000F00017000000F00000900000000000008653
:2B219800000000000040200100200100000512000000000000000040010060002000000000000000400000000008AECC
:2B21C3000000000000202001002001000001120000000000000000400000600200000000000100A0000000000000E653
:2B21EE00000000000018000100000100800110000000000000000060000040000600000060000020400000000080B67F
:2B221900000000000018400101000101800510100000000000000060010040010600000060000020000000000080E20F
:2B2244000A0000000000081000001000000220000000000000000080000000040000000000200020000000000000E374
:2B226F00000000000020000000000200000200000000000000000080000000000002000080000000000000000080E5B9
:2B229A00800008800000000008000008000000800008000000000000000200000020000200000200000220000200CD62
:2B22C500800008800008800008800008800008800008000000000020000220000220000220000220000220000280E78B
:2B22F000000000000002300200200000000200000000000000000088000088800800000000000C00000003000000AB1B
:2B231B00000000000000000000000000000000000000000000000000000000000000040110000100001110050080F6E5
:2B234600000000000000000000000000000000000000000000000000000000000000000000000000000000000080E705
:2B237100000000000000000000000000800000000000000000000000000000000000000000000000000000000000EFD2
:2B239C00000000000002300200200000000200000000000000000088000088800800040110000900001112050000EEF4
:2B23C700000000000000100001000001400021100000000000000040000040000400000040000000000000000080958F
:2B23F200000000000000000100000000000004000000000000000000000040000000000000000000400000000080B209
:2B241D00000000000000040000000000004000000000000000000000100000100001000000100000000000000080E7B8
:2B2448000000000000000100000000000080000A0000000000000000200000200000000000040000200000000080C03A
:2B2473000000000000000000000000000000000600000000000000000000000000000000000000001000000000C0B5B3
:2B249E00000000000000000000000000000008100000000000000000000000000000000000000040190000000000A200
:2B24C900000000000000000000000000008000000000000000000000200000000000000000000000000000000080CFF9
:2B24F400000000000000040000000000000000000000000000000000000000000000000000100000020000000080F136
:2B251F00000000000000000000000000000000000000000000000000000000000000000000000000000000000080E72A
:2B254A00000000000000000000000000000000000000000000000000000000000000000000000000000000000080E7FF
:2B257500000000000000000000000000000000000000000000000000000000000000000000000080400000000000A7D4
:2B25A000000000000000000000000000000000000000000000000000000000000000000000000000000000000080E7A9
:2B25CB00000000000000800000000000000000000000000000000000000000000200000000000000000000000040899A
:2B25F600000000000080000000800000000000000000000000000000020020022000000000000000000000000080CF27
:2B2621000000000000000000000000000000000000000000000000000000000000000000000000000000000000A0C529
:2B264C00100000000000000000000000000000000000000000000000000000000000000000000000000000000080F7DC
:2B267700000000000000000000000000000000000000000000000000000000000000000000000000000000000080E7D1
:2B26A200000000000000000000000000000000000000000000000000000000000000000000000000000000000080E7A6
:2B26CD00000000000000000000000000000000000000000000000000000000000000000000000000000000000008EFEB
:2B26F800000000000000000000000000000000000000000000000000000000000000000000000000000000000080E750
:2B272300000000000000000000000000000000000000100000000000000000000000000000000000000000000080F704
:2B274E00000000000000000000000000000000000000000000000000000000000000000000000000000000000080E7F9
:2B277900000000000000000000000000000000000000000000000000000000000000000000000000000000000080E7CE
:2B27A400100000000000000000000000000000000000000000000000000100000000000000000000000000000008EE03
:2B27CF00000000000000000000000000000000000000000000000000000000000000000000000000000000000080E778
:2B27FA00000000000000000000000000000000000000000000000000000000000000000000000000000000000080E74D
:2B282500000000000000000000000000020000000000000000000000000000000000000000000000000000000080E521
:2B285000000000000000000000000000000000000000000000000080000000000000000000000000000000000000E7F6
:2B287B00000000000000000000000000000000000000080000000000001008002000000000000000000000000D80B1B4
:2B28A600020000000000000000000000000000000000000000000000000000000000000000000000000000000208CF2C
:2B28D100020000000000000000000000000000000000000000000000000000000000000000000000000000000080E575
:2B28FC00040000000000000000000000000000000000000000000000000000000000000000000000000000000480A782
:2B292700020000000000000000000000000000000000080000000000001008002000000000000000000000000D80B303
:2B295200020000000000000000040000000000000000000000000000000000000000000000000000000000000080E1F3
:2B297D00020000000000000000000221010000000000000000000000000004000000000000000000000000000008BC41
:2B29A800800008800008800000000000800008800008000000000020000020000220000220000220000220000200CDCD
:2B29D300800008800008800008800008800008800008000000000020000220000220000220000220000220000280E776
:2B29FE00000000000000000000000000000000000000000000000000000000000000000000000000000000000080E747
:2B2A2900020000000000000000000000000000000066000000000000000000000000000000000000000000000008EB27
:2B2A5400000000000000000000000000000000000002000000000000000000000000000000000000000000000008CF7E
:2B2A7F00000000000000000000000000000000000014020000000000000000000000000000000000000000000090A5E1
:2B2AAA0000000000000000000000000000000000001A080000000000000000000000000000000000000000000088DE79
:2B2AD50000000000000000000000000000000000003A000000000000000000000000000000000000000000000088F420
:2B2B0000020000000000000000000000000000000018100000000000000000000000000000000000000000000088E414
:2B2B2B00000000000000000000000000000000000018000000000000000000000000000000000000000000000000FE69
:2B2B560000000000000000000000000000000000000000000000000000000000860000000000000000000000008089C5
:2B2B8100000000000000000000000000000000000000000000000000000000800900000000000000000000000080FE22
:2B2BAC00020000000000000000000000000000000000000000000000000000000000000000000000000000000008ED07
:2B2BD700000000000000000000000000000000000000000000000000000000000902000000000000000000000000D6F2
:2B2C0200000000000000000000000000000000000000000000000000000000000000000000000000000000000080E740
:2B2C2D00000000000000000000000000000000000000000000000000000000008800000000000000000000000000EF05
:2B2C5800000000000000000000000000000000000000000000000000000000000000000000000000000000000080E7EA
:2B2C8300020000000000000000000000000000000000000000000000000000000000000000000000000000000008ED2F
:2B2CAE00000000000000000010000110000000000000000000000000000000000000000000000000000000000080F664
:2B2CD900000000000000000016600116000000000000000000000000800F02000000000000000000000000000080C969
:2B2D0400000000000000000012200112000000000000000000000000000604000000000000000000000000000080F0E5
:2B2D2F00020000000000000014400114000000000000000000000000000F00000000000000000000000000000088CBAC
:2B2D5A000000000000000000122001120000000000000000000000000014000000000000000000000000000000089B52
:2B2D8500000000000000000012200112000000000000000000000000000C00000000000000000000000000000010833F
:2B2DB000000000000000000010040310040000000000000000000000000600000000000000000000000000000008BA05
:2B2DDB00000000000000000034000134000000000000000000000000001E000000000000000000000000000000889925
:2B2E0600020000000000000010000110000000000000000000000000000000080000000000000000000000088008F4F2
:2B2E31000000000000000000166001160000000000000000000000000000980000000000000000000000988009808F21
:2B2E5C00000000000000000012200112000000000000000000000000000000000000000000000000000000000080D6B0
:2B2E870000000000000000001440011400000000000000000000000000009020000000000000000000009020090287C5
:2B2EB200020000000000000012200112000000000000000000000000000000000000000000000000000000000008DCCA
:2B2EDD00020000000000000012200112000000000000000000000000000080080000000000000000000080088C00984F
:2B2F0800040000000000000030004130000000000000000000000000000000000000000000000000000040044080B243
:2B2F3300020000000000000014400314000000000000000000000000000060000000000000000000000000000080F036
:2B2F5E00020000000000000010000110000000000040000000000000080000000000000000000000000000000080B8A5
:2B2F8900020000000000000016600116000000000026000000000018000000000000000000000000000000000088C701
:2B2FB4000000000000000000122001120000000000020200000000600000000000000000000000000000000000809237
:2B2FDF00000000000000000014400114000000000034000000000070040000000000000000000000000000000080B680
:2B300A0000000000000000001220011200000000001A0000000000600000000000000000000000000000000000008953
:2B30350000000000000000001220011200000000001A1000000000600000000000000000000000000000000000889188
:2B306000020000000000000030000330000000000018100000000000000000000000000000000000000000000000DFD9
:2B308B00020000000000000010400110000000000018000000000000000000000000000000000000000000000000ADF2
:2B30B60002000000000000001000010000000000000000000000006000000000000008000000000000000000808083F1
:2B30E10002000000000000001660013E080000000000000000000008040000000098000000000000000000800D80FE56
:2B310C00000000000000000012200140000000000000000000000008010000000000000000000000000000000088A2F2
:2B31370000000000000000001440011C0000000000000000000000F00000000000D02000000000000000000009828D04
:2B316200000000000000000012200100000000000000000000000008000000000000000000000000000000000000EF18
:2B318D0000000000000000001220018000000000000000000000006801000000008008000000000000000000888088E3
:2B31B80002000000000000001004411800000000000000000000006000000000000004000000000000000000408892BF
:2B31E300000000000000000030000318000000000000000000000000000000000000000000000000000000000000FE78
:2B320E0000000000000000000080011000000000000000000000006001040000000000000000004000800000800088D7
:2B32390000000000000000003EE883160000000000260800000000E8800500000000000000000058800900800980B274
:2B326400000000000000000040000013000000000008040000000068800400000000000000000040000400000000AC04
:2B328F0002000000000000001CC0031400000000002400000000007000050000000000000000005000090200090A8B8D
:2B32BA000000000000000000008001120000000000001000000000088004000000000000000000400000000004009BDB
:2B32E500000000000000000080800912000000000028000000000008800400000000000000000040008800008880E53A
:2B331000000000000000000018000110040000000008100000000000000401000000000000000040004000004080F216
:2B333B00000000000000000018000530000000000008000000000000000D000000000000000000C001000000000888B4
:2B336600020000000000000000800100000000000020000000000020000400000000008040008400000440000000B835
:2B33910002000000000000003EE8833E080000000026000000000048840500000000800958800918840558000000A125
:2B33BC00020000000000000000000041000000000008000000000008810400000000000040000000000440000000B8D2
:2B33E70002000000000000005CC0033C0000000000040800000000F0000500000000000952000912000550000080D63C
:2B341200000000000000000080800580000000000000100000000008800400000000000040000060000440000088C43E
:2B343D000000000000000000008001000000000000280000000000E8810400000000008840008860000440000000D585
:2B346800000000000000000018000918000000000008100000000040000401000000004040084060000440000080D4E3
:2B349300000000000000000018000118000000000008000000000020010C000000000004C0000060008CC0200000D741
:2B34BE000A0000000000000000081000000000000008000000000000010800000000000000000000000000000080ED43
:2B34E900000000000000000020000000080000000000000000000000000800000000000000000000000000000000CDBB
:2B351400800008800008800000000000800008800000000000000010000020000220000220000220000220000280F6C4
:2B353F00800008800008800008800008800008800008000000000020000220000220000220000220000220000280E7FE
:2B356A00000000000000A00020A002B00000000000000800000000880200000000000401100001800009500D00008A0C
:2B359500000000000000000000000000200000000000000000000000000000000000000000000000000440000080C760
:2B35C000000000000000000000000000000000000000000000000000000000000000000000000000000000000080E779
:2B35EB00000000000000000000000000000000000000000000000000000000000000080220000200000220080080C51A
:2B3616000000000000002000202002A0200000000000080000000088020000000000040110000180000D50050000F7E6
:2B364100000000000000000004400004000000000000000000000040000000000000000000000040000000000080A76F
:2B366C00000000000000000000000100000000000080100000000000000000000000000000000000000000000000E6BC
:2B369700000000000000000000044000040000000000000000000000000001000000000000000000000000000080F34C
:2B36C200000000000000000000018000000000000000080000000000000002000000000000000000000000000080C60C
:2B36ED00100000000000000000000000000000000000040000000000000000111001111001001001001001111081F3A3
:2B371800000000000000000000000000000000000040040000000000000000011040011400011400001440011480A638
:2B374300000000000000000000000000000000000000000000000000000000000000000000000000000000000080E7F4
:2B376E00000000000000000000040000000000000000000000000000000000000000000000000000000000000080E3C9
:2B379900000000000000000000000000000000000000000000000000000000000000000000000000000000000080E79E
:2B37C400100000000000000000000000000000000000000000000000000000000000000000000000000000000080F753
:2B37EF000000000000000000000000000000000000200200000000000000040000000000000000000000000000808782
:2B381A00000000000000000000000000000000000004000000000000000000000000000000000000000000000080A758
:2B384500000000000000000000008008000000000000000000000000000000000000000000000000000000000000E7E9
:2B387000000000000000000080000880000000000000000000000000002000000000000000000000000000000000E520
:2B389B00000000000000000000000000000000000000000000000000000000000000000000000000000000000080E79B
:2B38C600000000000000000000000000000000000000000000000000000000000000000000000000000000000080E770
:2B38F100000000000000000000000000000000000000000000000000000000000000000000000000000000000080E745
:2B391C00000000000000000000000000000000000000000000000000000000000000000000000000000000000080E719
:2B394700401004411004411004411004411004411004010000000010044110044110044110044110044110044180E7F2
:2B397200601886611886611886611886611886611886010000000018866118866118866118866118866118866180E7CF
:02399D00FFFF2A
:00000001FF
