:020000040000FA
:2B000000FFFF62FF2500FFFFFFFFFFFFFFFFFFFFFFFFFFFFFFFFFFFFFFFFFFFFFFFFFFFFFFFFFFFFFFFFFFFFFFFFFF76
:2B002B00601886611886611886611886611886611886010000000018866118866118866118866118866118866180E74F
:2B005600401004411004411004411004411004411004010000000010044110044110044110044110044110044180E71C
:2B008100000000000000000000000000000000000000000000000000000000000000000000000000000000000080E7ED
:2B00AC00000000000000000000000000000000000000000000000000000000000000000000000000000000000080E7C2
:2B00D700000000000000000000000000000000000000000000000000000000000000000000000000000000000080E797
:2B010200000000000000000000000000000000000000000000000000000000000000000000000000000000000080E76B
:2B012D00000000000000000000000000000100000000000000000000000000000040000000000000000000000080B234
:2B015800020000000000000000000000000000000000000000000000000000000000000000000000000000000080E515
:2B018300000000000000000000000000000000000000000000000000000000000000000000000000000000000080E7EA
:2B01AE00000000000000000000000000000000000000000000000000000000000000000000000000000000000080E7BF
:2B01D9000000000000000000000000000000000000000000000000000000000000000000000000000000000000A0C596
:2B020400000000000000000000000000000000000000000000000000000000000000000000000000000000000080E768
:2B022F00000000000000000000000000000000000000000000000000000000000000000000000000000000000008EFAD
:2B025A00000000000000000000000000000000000000000000000000000000000000000000000000000000000080E712
:2B028500000000000000000000000000000000000000000000000000000000000000000000000000000000000080E7E7
:2B02B0000200000000000000000000000000000000000000000000000000000000000000000000000000000000A0C7BA
:2B02DB00000000000000000000000000000000000000000000000000000000000000000000000000000000000080E791
:2B030600000008000000000000000000000000000000000000000000000000000020000000000000000000000000CDD7
:2B033100000000000000000000000000000220000000000000000000000000000000000000000000000080000000E718
:2B035C00000000000000000000000000000000000000000000000000000000000000000000000000000000000080E70F
:2B038700000000000000000000000000000002000000000000000000000000000000000000000000001008003000CD34
:2B03B200020000000000000000000000000000000000000000000000000000000000000000000000000000000008ED29
:2B03DD00000000000000000000000000000000000000000000000000000000000000000000000000000000000080E78E
:2B040800000000000000000000000000000000000000000000000000000000000000000000000000001000001080E742
:2B04330000000000000000000000000000000200000000000000000000000000000000000000000000000800A000C52F
:2B045E00000000010001000000000000000008000000000000000000400000040000040000000000000000000000BE63
:2B0489000200200000000000000000000010000000000000000000800008040000800000000000000000000000888EF4
:2B04B400800000000008800008800008000000800008000000000000000000000200000220000220000220000280E72C
:2B04DF00800008800008800008800008800008800008000000000020000220000220000220000220000220000280E78F
:2B050A00000000000000000000000000000000000000000000000000000000000000000000000000000000000080E75F
:2B053500020000000000000000000000000000000000000000000000000000000000000000000000000000000008EDA4
:2B056000000000000000000000000000000000000000000000000000000000000000000000000000000000000008EF79
:2B058B00000000000000000000000000000000000000000000000000000000000000000000000000000000000090F6BF
:2B05B600000000000000000000000000000000000000000000000000000000000000000000000000000000000008EF23
:2B05E100000000000000000000000000000000000000000000000000000000000000000000000000000000000008EFF8
:2B060C00020000000000000000000000000000000000000000000000000000000000000000000000000000000008EDCC
:2B063700000000000000000000000000000000000000000000000000000000000000000000000000000000000080E731
:2B066200000000000000000000000000000000000000000000000000000000000000000000000000000000000080E706
:2B068D00000000000000000000000000000000000000000000000000000000000000000000000000000000000080E7DB
:2B06B800020000000000000000000000000000000000000000000000000000000000000000000000000000000008ED20
:2B06E300000000000000000000000000000000000000000000000000000000000000000000000000000000000080E785
:2B070E00000000000000000000000000000000000000000000000000000000000000000000000000000000000080E759
:2B073900000000000000000000000000000000000000000000000000000000000000000000000000000000000080E72E
:2B076400000000000000000000000000000000000000000000000000000000000000000000000000000000000080E703
:2B078F00020000000000000000000000000000000000000000000000000000000000000000000000000000000008ED48
:2B07BA00000000000000000000000000000000000000000000000040000440000040000000000000000000000080E7E9
:2B07E500000000000000000000000000000000000000000000000058800558000058000000000000000098010080FF44
:2B081000000000000000000000000000000000000000000000000048800448000048000000000000000008000000EF6A
:2B083B000200000000000000000000000000000000000000000000500005500000500000000000000000D0400088F80B
:2B086600020000000000000000000000000000000000000000000048800448000048000000000000000068040088878E
:2B0891000400000000000000000000000000000000000000000000488004480000480000000000000000E80000909CC8
:2B08BC000200000000000000000000000000000000000000000000400004400000400000000000000000600000088B58
:2B08E7000200000000000000000000000000000000000000000000500444400400D00800000000000000600800888FB1
:2B091200020000000000000000000000000100080000000000000040000440000040000000000000000000010008F5ED
:2B093D00000000000000000000000000600126000000000000000058800558000058000000000000000098000080CD96
:2B0968000000000000000000000000002001420000000000000000488004480000480000000000000000082000009AE3
:2B0993000000000000000000000000004001340000000000000000500005500000500000000000000000D0000000906F
:2B09BE0000000000000000000000000020011A000000000000000048800448000048000000000000000068000008897E
:2B09E90002000000000000000000000020017A000000000000000048800448000048000000000000000068100080F5FD
:2B0A14000200000000000000000000000001180000000000000000C0000C400000C00000000000000000600000808B65
:2B0A3F0002000000000000000000000040431C0200000000000000D0000D500400D0000000000000000060080080A35D
:2B0A6A00020000000000000000000000000100000000000000000040000440000040000000000000000000000080F426
:2B0A95000000000000000000000000006001000000000000000000588005580000580000000000000000000000089EA2
:2B0AC000000000000000000000000000200100000000000000000048800448000048000000000000000000000080D638
:2B0AEB00000000000000000000000000400100000000000000000050000550000050000000000000000000000080B674
:2B0B1600000000000000000000000000200100000000000000000048800448000048000000000000000000000080D6E1
:2B0B4100000000000000000000000000200100000000000000000048800448000048000000000000000000000008DE26
:2B0B6C000200000000000000000000000001000000000000000000400004C0000040000000000000000000000000F423
:2B0B97000200000000000000000000000043000000000000000000400445D00000C0080000000000000000000080DA73
:2B0BC200020000000000000000000000000210000000000000000040000440000040000000000000000000000080D6DA
:2B0BED00020000000000000000000000E00116000000000000000058800558000058000000000000000000000000ED6A
:2B0C1800000000000000000000000000000012000000000000000048800448000048000000000000000000000008DE5D
:2B0C4300000000000000000000000000C00115000000000000000050000550000050000000000000000000000000FFBC
:2B0C6E0000000000000000000000000000041200000000000000004880044800004800000000000000000000008092D7
:2B0C9900000000000000000000000000000012000000000000000048800448000048000000000000000000000080D66C
:2B0CC4000200000000000000000000008001100400000000000000C0000CC00000C0000000000000000000000088E1B9
:2B0CEF000000000000000000000000008001300000000000000000C0000CC00000C0000000000000000000000000CD10
:2B0D1A00000010000100000000000000000228000000000000000080000AC00000800000000000000000000000008920
:2B0D4500000016600100000000000000E0010E000000000000000078800358000078000000000000000098200080A971
:2B0D7000000012200100000000000000000018000000000000000000010660000000010000000000000020000000DCA9
:2B0D9B00020014400100000000000000C0093C080000000000000070002770020070000000000000000010200088F6A2
:2B0DC6000000122001000000000000000040080200000000000000000202400200000200000000000000001000009D90
:2B0DF100000012200100000000000000000238000000000000000000001660000000000000000000000020000000DDF7
:2B0E1C00000010044100000000000000800108000000000000000060000240000060000000000000000020000080B279
:2B0E4700000030000300000000000000800118100000000000000060000664400060000000000000000020080008D535
:2B0E7200020110000100000000000000000030000000000000000080000AC0000080000000000000000000000080A126
:2B0E9D00620116600100000000000000600416000000000000000078800358000078000000000000000018400000FEB5
:2B0EC800220112200100000000000000800418010000000000000000001660010000000000000000000020400080E2D3
:2B0EF30042011440010000000000000040021C0000000000000000700107700000700100000000000000100000009ED7
:2B0F1E00200112200100000000000000004010000000000000000000002240000000000000000000000000100008BFCB
:2B0F4900200112200100000000000000800058000000000000000000020660010000020000000000000020000080A0A6
:2B0F7400004110044100000000000000800010000000000000000060000240000060000000000000000020000000AF5B
:2B0F9F00000334400300000000000000802018100000000000000060000664400060000000000000000020080080FDD6
:2B0FCA001A0000081000000000000000000001080000000000000000400002000000000000000000000020000080AE31
:2B0FF500000221000000000000000000000200000000000000000000000880200000040000000000000000000080F18F
:2B102000000000000008800008800008000000800008000000000000000000000200000220000220000200000200CDEE
:2B104B00800008800008800008800008800008800008000000000020000220000220000220000220000220000280E717
:2B107600200302000230000000000000200000000000000000000088800888000080000C00000000000000000080A98B
:2B10A100000000000000000000000000000000000000000000000000000000000000000110000110000010040080F27C
:2B10CC00000000000000000000000000000000000000000000000000000000000000000000000000000000000080E792
:2B10F700000000000000000000000000000000000000000000000000000000000000000000000000000000000080E767
:2B112200200202000220000000000000200000000000000000000088800888000080000910000110000010040080F86E
:2B114D00000000000000000000000000400004100000000000000050000554400010010000000000000000000080B2F7
:2B117800000000000101000000000000001000000000000000000000400040000000000000000000000000040080E74F
:2B11A300008000000000000000000000000000000000000000000000000002100000000000000000000000000080DF30
:2B11CE00000000040000000000000000000000020000000000000010000111000010000000000000000000000080F14D
:2B11F900000000000000000000000000000000040000000000000000000000000000000000000000000000740080973C
:2B122400000000000000000000000000000850040000000000000000000000000000000000000000000020400000D40F
:2B124F00000000000000000000000000000000000000000000000000000000000000000000000000000000000080E70D
:2B127A00000000000000000000000000000000000000000000000000000000000000000000000000000000000080E7E2
:2B12A500000000000000000000000000000000000000000000000000000000000000000000000000000000000080E7B7
:2B12D000000000000000000000000000000000000000000000000000000000000000000000000000000000000080E78C
:2B12FB00000000000000000000000000000001000000000000000000000000000000000000000000000000080080FF40
:2B132600000000000000000000000000000000000000000000000000000000000000000000000000000000100080F715
:2B135100000000000000000000000000000800000000000000000000000000000000000000000000000000000000E782
:2B137C00000880000800000000000000008080000000000000000000200000000000000000000000000000000080CF47
:2B13A700000000000000000000000000000000000000000000000000000000000000000000000000000000000080E7B4
:2B13D200000000000004000000000000000000000000000000000000000000000000000000000000000100000080B6B5
:2B13FD00000000000000000000000000000000000000000000000000000000000000000000000000000000000080E75E
:2B142800000000000000000000000000000000000000000000000000000000000000000000000000000000000080E732
:2B145300080000000000000000000000000000000000000000000000000000000000000000000000000000000080EFF7
:2B147E00000000000000000000000000000000000000000000000000000000000000000000000000000000000080E7DC
:2B14A900000000000000000000000000000000000000000000000000000000000000000000000000000000000080E7B1
:2B14D400000000000000000000000000000000000000000000000000000000000000000000000000000000000080E786
:2B14FF00000000000000000000000000000000000000000000000000000000000000000000000000000000000080E75B
:2B152A00080000000000000000000000000000000000000000000000000000000000000000000000000000000080EF1F
:2B155500000000000000000000000000000000000000000000000000000000000000000000000000000000000080E704
:2B158000000000000008000000000000000000000000000000000000000200000000000000000000000000000000CD69
:2B15AB00000000000000000000000000000000000020000000000000000000000800000000000000000800000080C5A0
:2B15D600000000000000000000000000000000000000000000000000000000000000000000000000000000000080E783
:2B160100000000000000000000000000000000000080000000000000000000000000000000000000001000001000E737
:2B162C00020000000000000000000000000000000000000000000000000000000000000000000000000000000008ED9C
:2B165700000000000000000000000000000000000000000000000000000000000000000000000000000000000080E701
:2B168200000000000000000000000000000000000000000000000000000000000000000000000000001000001080E7B6
:2B16AD00000000000000000000000000000000000080000000000000000000000000000000000000000000000000E7AB
:2B16D80000000000000001000001000100000000000000000000000000400040020000000000000000080000000091C9
:2B170300020000000020000201000200000000000000000000000000000800000000000000000000000800000008DF9D
:2B172E00800008800000000000000008800008800008000000000020000000000020000220000220000020000280E763
:2B175900800008800008800008800008800008800008000000000020000220000220000220000220000220000280E702
:2B178400000000000000000000000000000000000000000000000000000000000000000000000000000000000080E7D3
:2B17AF00020000000000000000000000000000000000000000000000000000000000000000000000000000000008ED18
:2B17DA00020000000000000000000000000000000000000000000000000000000000000000000000000000000080E57D
:2B180500040000000000000000000000000000000000000000000000000000000000000000000000000000000080E351
:2B183000020000000000000000000000000000000000000000000000000000000000000000000000000000000080E526
:2B185B00020000000000000000000000000000000000000000000000000000000000000000000000000000000080E5FB
:2B188600020000000000000000000000000000000000000000000000000000000000000000000000000000000008ED40
:2B18B100000000000000000000000000000000000000000000000000000000000000000000000000000000000080E7A5
:2B18DC00000000000000000000000000000000000000000000000000000000000000000000000000000000000080E77A
:2B190700000000000000000000000000000000000046000000000000000000000000000000000000000000000080C32C
:2B193200020000000000000000000000000000000002100000000000000000000000000000000000000000000008DD91
:2B195D00000000000000000000000000000000000014000000000000000000000000000000000000000000000080B615
:2B19880000000000000000000000000000000000001A000000000000000000000000000000000000000000000000DE3C
:2B19B30000000000000000000000000000000000003A010000000000000000000000000000000000000000000000FDD1
:2B19DE00000000000000000000000000000000000018000000000000000000000000000000000000000000000000FEC8
:2B1A0900020000000000000000000000000000000018020000000000000000000000000000000000000000000088F618
:2B1A3400000000000010000110000100000000000000000000000000000000000000000000000000000000000080E7FE
:2B1A5F00000000000016600116600100000000000000000000000000000000000000000000000000000000000080E707
:2B1A8A00000000000012200112200100000000000000000000000000000000000000000000000000000000000080E764
:2B1AB500000000000014400114400100000000000000000000000000000000000000000000000000000000000008EF65
:2B1AE000020000000012200112200100000000000000000000000000000000000000000000000000000000000080E50E
:2B1B0B00020000000012200112200100000000000000000000000000000000000000000000000000000000000080E5E2
:2B1B3600020000000010020110001100000000000000000000000000000000000000000000000000000000000080E6E8
:2B1B6100020000000034401114410300000000000000000000000000000000000000000000000000000000000080E515
:2B1B8C00000000000010000110000100000000000000000000000000000000000000000000000000000400000008AB55
:2B1BB700000000000016600116600100000000000000000000000000000000000000000000000000800500000000BAD6
:2B1BE200000000000012200112200100000000000000000000000000000000000000000000000000800400000000AB43
:2B1C0D00000000000014400114400100000000000000000000000000000000000000000000000000000500000080B2CB
:2B1C3800020000000012200112200100000000000000000000000000000000000000000000000000800400000088A16C
:2B1C6300000000000012200112200100000000000000000000000000000000000000000000000000800400000088A341
:2B1C8E00000000000010001110000100000000000000000000000000000000000000000000000000000401000090A3C1
:2B1CB900000000000014410310411100000000000000000000000000000000000000000000000000000D00000088D9D8
:2B1CE4000000000000100001100001000000000000000000000000000000000000020000000000000004000000088B1A
:2B1D0F00020000000016600116600100000000000000000000000000000000800100000000000000800500000008A902
:2B1D3A00000000000012200112200100000000000000000000000000000000801000000000000000800400000080A2E2
:2B1D6500000000000014400114400100000000000000000000000000000000000D00000000000000000500000000E7B0
:2B1D9000000000000012200112200100000000000000000000000000000000800600000000000000800400000080C573
:2B1DBB00000000000012200112200100000000000000000000000000000000801E00000000000000800400000088CC21
:2B1DE600020000000010020110011100000000000000000000000000000000000600000000000000000401000080D53B
:2B1E1100020000000030001134000300000000000000000000000000000000008700000000000000000C00000000BDDC
:2B1E3C00020000000010000110000100000000000000000000000000000000000400000000000000000800000000A1AA
:2B1E6700020000000016600116600100000000000006100000000000000000800500000000000000800700000080B707
:2B1E92000000000000122001122001000000000000080100000000000000008004000000000000000000020000088A9E
:2B1EBD00000000000014400114400100000000000004000000000000000000000500000000000000000F0000000085B3
:2B1EE800000000000012200112200100000000000000040000000000000000800400000000000000001000000000AE23
:2B1F1300000000000012200112200100000000000008000000000000000000800400000000000000000000000080A38E
:2B1F3E00020000000010001110010100000000000008000000000000000000000401000000000000000600000088D7D1
:2B1F6900000000000010010330001100000000000008020000000000000000000C00000000000000000600000008C70D
:2B1F9400000000000020800230000200000000000000000000000040000440000A00000000000000000800000010891F
:2B1FBF0000000000001EE00016E00100000000000066000000000058800558800300000000000000800700000008E96C
:2B1FEA00000000000000800958000000000000000022000000000048800448000E00000000000000000000000088839C
:2B20150002000000005CC0011CC00500000000000034000000000050000550000F00000000000000002700000088C940
:2B20400000000000000080041000000000000000001A020000000048800448000200000000000000000000000000EFC0
:2B206B0000000000008080015800080000000000003A00000000004880044800060400000000000000080400000092F3
:2B209600000000000018800010800100000000000018000000000040100441100201000000000000000600000080E7C9
:2B20C1000000000000188001199001000000000000180200000000C0000CC0000600000000000000000600000008B047
:2B20EC00020000000020800230000200000000000000000000000000000440000C00000000000000000000000080B86B
:2B21170002000000001EE00016E00100000000000026080000000000800558800500000000000000801100000000F392
:2B214200020000000040800198000400000000000008080000000000800448004600000000000000001200000080A4BB
:2B216D0002000000001CC0091CC00100000000000004000000000000000550000700000000000000000900000080C3D7
:2B219800000000000080800010000800000000000000040000000000800448000400000000000000000000000088B6F2
:2B21C300000000000000800598000000000000000008000000000000800448001600000000000000000204000080AEB6
:2B21EE000000000000188000108001000000000000080000000000000004411004010000000000000002000000808039
:2B221900020000000018800119900100000000000008020000000000000DD0000600000000000000008200000000A343
:2B2244000A0000000020008000000001000000000008000000000000000002040000000000000000000004000000BBF7
:2B226F00000000000020000220080000000000000000000000000080400800000802000000000000000800000080ADF3
:2B229A00800008800000000000000008800008800000000000000000000000000020000220000220000020000200CDAE
:2B22C500800008800008800008800008800008800008000000000020000220000220000220000220000220000280E78B
:2B22F0000000000003022002222002000000000000400000000000C080A088000002000000000000800000000000D45A
:2B231B00000000000000000000000000000000000000000000000000000000000000000110000110000010040080F2EF
:2B234600000000000000000000000000000000000000000000000000000000000000000000000000000000000080E705
:2B237100000000000000000000000000000000000000000000000000000000000000000000000000000000000080E7DA
:2B239C000000000002022002222002000000000000400000000000808020880000020001100001108000100400009C70
:2B23C700000000000014400115500100000000000008000000000000000000000100000000000000000104000000AF73
:2B23F200000000000040800018800001000000000004010000000000000040404000000000000000000000000000EBB7
:2B241D00000000000000008000040000000000000000000000000000200000000001000000000000000000000080DB94
:2B244800000000000000004000000000000000000000000000000000000001000000000000000000000000000080F3B5
:2B2473000000000000000000000000000000000000001400000000000000000000040000000000000000020000D0C68E
:2B249E00000000000000000000000000000000000010120000000000000000008400000000000000000001000080B834
:2B24C900000000000000000000000000000000000000000000000000000000000000000000000000000000000080E781
:2B24F400000000000000000000000000000000000000000000000000000000000000000000000000000000000080E756
:2B251F00000000000000000000000000000000000000000000000000000000000000000000000000000000000080E72A
:2B254A00000000000000000000000000000000000000000000000000000000000000000000000000000000000080E7FF
:2B257500000000000000000000000000000000000000000000000000000000000000000000000000000000000090F6B5
:2B25A000000000000000000000000000000000000040000000000000000000000100000000000000000000000080B29D
:2B25CB000000000000000000000000000000000000000000000000000000000000000000000000000000000000C0A382
:2B25F600000000000000000000008000000000000000000000000000022000022000000000000000002002000080CD87
:2B262100000000000000000000000100000000000000000000000000000400000000000000000000000000000080B257
:2B264C00100000000000000000000000000000000000000000000000000000000000000000000000000000000080F7DC
:2B267700000000000000000000000000000000000000000000000000000000000000000000000000000000000080E7D1
:2B26A200000000000000000000000000000000000000000000000000000000000080000000000000000000000000E7A6
:2B26CD00000000000000000000000000000000000000000000000000000000000000000000000000000000000080E77B
:2B26F800000000000000000000000000000000000000000000000000000000000000000000000000000000000080E750
:2B272300000000000000000000000000000000000000000000000000000000000000000000000000000000000008EF94
:2B274E00000000000000000000000000000000000000000000000000000000000000000000000000000000000080E7F9
:2B277900000000000000000000000000000000000000000000000000000000000000000000000000000000000080E7CE
:2B27A400100000000000000000000000000000000000000000000000000000000000000000000000000000000080F783
:2B27CF00000000000000000000000000000000000000000000000000000000000000000000000000000000000080E778
:2B27FA00000000000000000000000008000000000000000000000000000020000000000000000000000000000000CDBF
:2B282500000000000000000000000200000000000200000000000000000000000080000000000000000000000000E71D
:2B285000000000000000000000000000000000000000000000000000000000000000000440000440000400000480E766
:2B287B00000000000000000000000000000000000000080000000000000800000008000000000000001400001480E78B
:2B28A600020000000000000000000000000000000000000000000000000000000000000000000000000000000008ED10
:2B28D100020000000000000000000000000000000000000000000000000000000000000000000000000000000080E575
:2B28FC00040000000000000000000000000000000000000000000000000000000000000000000000000400000480E342
:2B2927000200000000000000000000000000000000000C0000000000000800000008000000000000001000001080E1E6
:2B2952000200000000000000000000000100018000000000000000004000000400200000000000000000000000009AD8
:2B297D00020000000000000000001220000000000000000000000000004080000000000000000000000000000088E8CB
:2B29A800800008800008800008000000000008000008000000000000000000000200000220000220000220000280E78B
:2B29D300800008800008800008800008800008800008000000000020000220000220000220000220000220000280E776
:2B29FE00000000000000000000000000000000000000000000000000000000000000000000000000000000000080E747
:2B2A2900020000000000000000000000000000000000000000000000000000000000000000000000000000000008ED8B
:2B2A5400000000000000000000000000000000000000000000000000000000000000000000000000000000000080E7F0
:2B2A7F00000000000000000000000000000000000000000000000000000000000000000000000000000000000080E7C5
:2B2AAA00000000000000000000000000000000000000000000000000000000000000000000000000000000000080E79A
:2B2AD500000000000000000000000000000000000000000000000000000000000000000000000000000000000080E76F
:2B2B0000020000000000000000000000000000000000000000000000000000000000000000000000000000000008EDB3
:2B2B2B00000000000000000000000000000000000000000000000000000000000000000000000000000000000080E718
:2B2B5600000000000000000000000000000000000000000000000000000000000000010000000000000000000080E6ED
:2B2B8100000000000000000000000000000000608200000000000000000000000098000000000000000000000080B47B
:2B2BAC00020000000000000000000000000000200400000000000000000000000020000000000000000000000008AB05
:2B2BD700000000000000000000000000000000400300000000000000000000000010010000000000000000000080847B
:2B2C0200000000000000000000000000000000A00100000000000000000000000000000000000000000000000000DE28
:2B2C2D00000000000000000000000000000000A00500000000000000000000000020400000000000000000000000F87F
:2B2C5800000000000000000000000000000000800100000000000000000000000020000000000000000000000000DCD4
:2B2C8300020000000000000000000000000000C021000000000000000000000000200800000000000000000000889CF7
:2B2CAE00000000000000000000000000000000000000000000000000000400000040000000000000000002000082E74C
:2B2CD900000000000000000000000000000000000000000000000000800500000058100000000000800100800180F76A
:2B2D04000000000000000000000000000000000000000000000000008004000000E0000000000000000001000081CDF1
:2B2D2F00000000000000000000000000000000000000000000000000000500000070000000000000000900000908CD1D
:2B2D5A0002000000000000000000000000000000000000000000000080040000004000000000000000020400008CC72F
:2B2D85000200000000000000000000000000000000000000000000008004000000E04000000000000008000008909E3F
:2B2DB000020000000000000000000000000000000000000000000000000C00000040000000000000004000004288CFD1
:2B2DDB00020000000000000000000000000000000000000000000000000D000000604000000000000000000000889EF8
:2B2E0600000000000000000000000100000000000000000000000000000000000000000000000000000000000008FE9A
:2B2E31000000000000000000006001000000000000000000000000000000000000980200000000000000000000808D6E
:2B2E5C00000000000000000000200100000000000000000000000000000000000008010000000000000000000000DF42
:2B2E8700000000000000000000400100000000000000000000000000000000000050000000000000000000000080E32C
:2B2EB200000000000000000000200100000000000000000000000000000000000068020000000000000000000088B230
:2B2EDD00020000000000000000200100000000000000000000000000000000000068000000000000000000000000BA85
:2B2F08000200000000000000000001000000000000000000000000000000000000600000000000000000000000809229
:2B2F3300020000000000000000002300000000000000000000000000000000000070080000000000000000000080ABAB
:2B2F5E00020000000000000000000100000000000000000000000000000000000020000000000000000000000080D6CF
:2B2F8900000000000000000000600100000000000000000000000000000000000038100000000000000000000088B537
:2B2FB400000000000000000000200100000000000000000000000000000000000060000000000000000000000080B041
:2B2FDF000000000000000000004001000000000000000000000000000000000000F0040000000000000000000000C5CD
:2B300A00000000000000000000200100000000000000000000000000000000000020000000000000000000000080F4E6
:2B3035000000000000000000002001000000000000000000000000000000000000E0010000000000000000000088B92D
:2B306000020000000000000000000100000000000000000000000000000000000020000000000000000000000080D6CC
:2B308B00020000000000000000402300000000000000000000000000000000000060400000000000000000000080B2E3
:2B30B6000200000000000000000002100000000003000000000000400000000000000000000000000000000000828195
:2B30E100020000000000000000E00116000000600100000000000058000000000078100000000000000000800180B7D2
:2B310C000000000000000000000000120000008001000000000000480000000000000800000000000000000000099319
:2B313700000000000000000000C00914000000C01300000000000050000000000070000000000000000000000980A6CE
:2B316200000000000000000000000012000000000100000000000048000000000000200000000000000000000004EBD8
:2B318D00000000000000000000000213000000800700000000000048000000000080000000000000000000000A80F534
:2B31B8000200000000000000008001100000000041000000000000C0000000000060000000000000000000004008D6DA
:2B31E3000000000000000000008001100100008001000000000000C0000000000060000000000000000000000000D5B9
:2B320E00000100000000000000000200000100800200000000000000000040000000000000000000000040000000EFA0
:2B323900600100000000000000E00100600100E000000000000000000000580000781000000000000000580000009916
:2B326400200100000000000000008000200100800100000000000000000048000000000000000000000048000000F676
:2B328F00420100000000000000C00300400100C001010000000000000000500000F0200000000000000050000088884B
:2B32BA00200100000000000000000400200100800001000000000000000048000000400000000000000048000000FB57
:2B32E500200100000000000000000000200100800100000000000000000048000000000000000000000048000000FE6D
:2B3310000001000000000000008001000001008040000000000000000000C00000600000000000000000C0000080945B
:2B333B000011000000000000008001000011008001000000000000000000C00000600000000000000000C000000889D2
:2B336600020000000000000000000010000100000100000000000040000440004040000002200002200000000082D08E
:2B339100020000000000000000600416600100600100000000000058800558800958800118800118000000800100B05A
:2B33BC00020000000000000000000412200100200100000000000048800448000048000001100001100000000081800D
:2B33E700020000000000000000C00214400100400100000000000050000550000150000990000990000000000980DED2
:2B34120000000000000000000080001220010020010000000000004880044800064800040440000440000000008CB48D
:2B343D00000000000000000000000013200100200100000000000048800448000648000880000C80000000000800E4AD
:2B3468000000000000000000008000100001000001000000000000C0000CC00006C0004040044000040000004000D875
:2B3493000200000000000000008020144111000011000000000000D0000CD00006C0000000000040000000000200FF42
:2B34BE001A0000000000000000000000082000008000000000000000080000000000000000000000000000000080F7A2
:2B34E900000201000000000000001020000000000000000000000000000882400000200000000000000080040000B265
:2B351400000008800008800008000000000008000008000000000000000000000200000220000220000200000200CD4D
:2B353F00800008800008800008800008800008800008000000000020000220000220000220000220000220000280E7FE
:2B356A0000020000000000000020008220008002000000000000000882000880A0000001100001100000B00C0000D090
:2B359500000000000000000000000000000000000000000000000000000000000000000000000000000000000080E7A4
:2B35C000000000000000000000000000000000000000000000000000000000000000000000000000000000000080E779
:2B35EB00000000000000000000000000000000000000000000000000000000000000000220000220000020080080CDFC
:2B361600000200000000000000200082200080000000000000000008820008802000000110000110000090040000F06D
:2B364100000100000000000000400411000100400100000000000000000000000000440000000000000000000080F70B
:2B366C00000000000000000000000000000201001000000000000080400000000200000002200002200002000002B660
:2B369700008000000000000000000000000000000000000000000000000001200000080000000000000000000080D708
:2B36C200000000000000000000000000040000002000000000000010000110000010000000000000000010000080F008
:2B36ED00000000000000000000008000000000004001000000000000000000000010300000000000000000000080DA57
:2B371800000000000000000000004000000000000000000000000000000000000000508000088000088000008080B3B3
:2B374300000000000000000000000000000000000000000000000000000000000000000000000000000000000080E7F4
:2B376E00000000000000000000000000000000000000000000000000000000000000000000000000000000000080E7C9
:2B379900000000000000000000000000000000000000000000000000000000000000000000000000000000000080E79E
:2B37C400000000000000000000000000000000000000000000000000000000000000000000000000000000000080E773
:2B37EF00000000000000000000000000000000800000000000000000000000000020000000000000000000000000CD42
:2B381A00000000000000000000000000000000000001000000000000000000000000000000000000000000000080F70B
:2B384500000000000000000000800000000000000000000000000000000000000000000000000000000020000000CDEB
:2B387000000000000000000000000000000000000000000000000000000000000000002000022000022000002080E742
:2B389B00000000000000000000000000000000000000000000000000000000000000000000000000000000000080E79B
:2B38C600000000000000000000000000000000000000000000000000000000000000000000000000000000000080E770
:2B38F100000000000000000000000000000000000000000000000000000000000000000000000000000000000080E745
:2B391C00000000000000000000000000000000000000000000000000000000000000000000000000000000000080E719
:2B394700401004411004411004411004411004411004010000000010044110044110044110044110044110044180E7F2
:2B397200601886611886611886611886611886611886010000000018866118866118866118866118866118866180E7CF
:02399D00FFFF2A
:00000001FF
