:020000040000FA
:2B000000FFFF62FF2500FFFFFFFFFFFFFFFFFFFFFFFFFFFFFFFFFFFFFFFFFFFFFFFFFFFFFFFFFFFFFFFFFFFFFFFFFF76
:2B002B00601886611886611886611886611886611886010000000018866118866118866118866118866118866180E74F
:2B005600401004411004411004411004411004411004010000000010044110044110044110044110044110044180E71C
:2B008100000000000000000000000000000000000000000000000000000000000000000000000000000000000080E7ED
:2B00AC00000000000000000000000000000000000000000000000000000000000000000000000000000000000080E7C2
:2B00D700000000000000000000000000000000000000000000000000000000000000000000000000000000000080E797
:2B010200000000000000000000000000000000000000000000000000000000000000000000000000000000000080E76B
:2B012D00000000000000000000000000000000000000000000000000000000000000000000000000000000000008EFB0
:2B015800000000000000000000000000000000000000000000000000000000000000000000000000000000000080E715
:2B018300000000000000000000000000000000000000000000000010000000000000000010000000000000000080E7CA
:2B01AE000000000000000000000000000000000000000000000000000000000000000000000000000000000000A0C5C1
:2B01D900080000000000000000000000000000000000000000000000000000000000000000000000000000000080EF84
:2B020400000000000000000000000000000000000000000000000000000000000000000000000000000000000080E768
:2B022F00000000000000000000000000000000000000000000000000000000000000000000000000000000000080E73D
:2B025A00000000000000000000000000000000000000000000000000000000000000000000000000000000000080E712
:2B028500000000000000000000000000000000000000000000000000040000000000000000040000000000000080E7DF
:2B02B000080000000000000000000000000000000000000000000000000000000000000000000000000000000008E72C
:2B02DB00000000000000000000000000000000000000000000000000000000000000000000000000000000000080E791
:2B030600000000000000000000000000000000000000000000000000000000000000000000000000000000000080E765
:2B033100000000000000000000000000000000000000000000000000000000000000000000000000000000000080E73A
:2B035C00000000000000000000000000000000000000000000000000000000000000000000000000000000000080E70F
:2B03870000000000000000000000000000000040008000000000000000000000000000000000200000000000200287C2
:2B03B200020000000000000000000000000000000000000000000000000000000000000000000000000000000008ED29
:2B03DD00000000000000000000000000000000000000000000000000000000000000000000000000000000000080E78E
:2B040800000000000000000000000000000000000000000000000000000000000000000000000000000000002082C562
:2B04330000000000000000000000000000000040008002000000000000000000000000000000A000000000000000AF8D
:2B045E00000000000000000000000000000000000000000000000000000000000000000000000000000000000080E70C
:2B048900020000000000000000000000000000000000000000000000000000000000000000000000000000000008ED51
:2B04B400800008800008800008800008800008800008000000000020000220000220000220000220000220000280E7BA
:2B04DF00800008800008800008800008800008800008000000000020000220000220000220000220000220000280E78F
:2B050A00000000000000000000000000000000800500000000000000000000000000000400000000000000000000FE3F
:2B053500020000000000000000000000000000600200000000000000000000000000804C6810000000000000008899D2
:2B056000020000000000000000000000000000808100000000000000000000000000800048000000000000000088B865
:2B058B00040000000000000000000000000000C00100000000000000000000000000000FD440000000000000001089C4
:2B05B600020000000000000000000000000000000200000000000000000000000000802008020000000000000008CF95
:2B05E100020000000000000000000000000000800300000000000000000000000000800EE8000000000000000088D696
:2B060C00020000000000000000000000000000000000000000000000000000000000000000100000000000000008FDAC
:2B0637000000000000000000000000000000000000000000000000000000000000000046E0000000000000000000E38F
:2B066200000000000000000000000000000000000400000000000000000400000000000040000000000000000080A302
:2B068D00000000000000000000000000000000600200000000000068904C00000000804E48100000000000000080A551
:2B06B800020000000000000000000000000000800100000000000048800000000000800408000000000000000088F4C4
:2B06E300000000000000000000000000000000C041000000000000D0400F04000000000DF4400000000000000000BACD
:2B070E00000000000000000000000000000000800100000000000008800000000000800008000000000000000000FE31
:2B0739000000000000000000000000000000008001000000000000E8822E00000000802EE8020000000000000000FEE6
:2B076400000000000000000000000000000000800100000000000000000001000000000000100000000000000000FEDA
:2B078F00020000000000000000000000000000800100000000000060040E000000000046E0000000000000000088F4A8
:2B07BA00000000000000000000000000000000000900100000000040000400000000000440200000000000000000C68D
:2B07E50000000000000000000000000000000020021E0000000000489084000000008084480000000000000000008C75
:2B081000000000000000000000000000000000200418000000000008800000000000800048000000000000000000DE53
:2B083B0000000000000000000000000000000040003C1000000000F0400F04000000000F54010000000000000008A7B0
:2B086600020000000000000000000000000000200218000000000008822000000000802008000000000000000088F45D
:2B0891000200000000000000000000000000002000180400000000688006000000008006E8200000000000000080F80A
:2B08BC00020000000000000000000000000000000019000000000000000001000000000060020000000000000088907B
:2B08E700020000000000000000000000000000000218000000000060040E00000000004660000000000000000008D6D4
:2B091200000000000000000000000000000000000900000000000080000000000000001080000000000000000088FF1A
:2B093D00000000000000000000000000000000A00342000000000068804E00000000800168000000000000000080EB20
:2B096800000000000000000000000000000000A00502000000000048800400000000001048000000000000000080F722
:2B099300000000000000000000000000000000C001040000000000D0400D04000000000DD0400000000000000000BE78
:2B09BE00000000000000000000000000000000A0031A00000000000880000000000000040800000000000000008881B4
:2B09E900020000000000000000000000000000A0011A00000000006882260000000000006C020000000000000000C9DF
:2B0A1400020000000000000000000000000000800119000000000000000001000000008400100000000000000080B94D
:2B0A3F00020000000000000000000000000000800318000000000060040E000000000004E0000000000000000080E138
:2B0A6A000200000000000000000000000000000000001000000000C00000020000000000C2000000000000000080F556
:2B0A9500000000000000000000000000000000E00506000000000048800900000000800948000000000000000088B26F
:2B0AC000000000000000000000000000000000808000000000000008000600000000002608000000000000000000E5EA
:2B0AEB00000000000000000000000000000000C000241000000000F0402F00000000000FF0400000000000000000DF6F
:2B0B1600000000000000000000000000000000000000000000000008010000000000000008010000000000000080E73B
:2B0B4100000000000000000000000000000000800700040000000068002600000000002E68000000000000000008943E
:2B0B6C00020000000000000000000000000000000120000000000000000000000000000000100000000000000008CE55
:2B0B9700020000000000000000000000000000000B300000000000600406000000000006E0000000000000000090F026
:2B0BC200020000000000000000000000000000000490000000000000200002000000000402010000000000000088DDE4
:2B0BED0002000000000000000000000000000020001E000000000098800900000000800498000000000000000008E177
:2B0C18000000000000000000000000000000002000580000000000600226000000008004040000000000000000089E83
:2B0C43000000000000000000000000000000004000240000000000700007000000000005B0010000000000000000A253
:2B0C6E00000000000000000000000000000000A00110000000000000001000000000800020000000000000000080E496
:2B0C9900000000000000000000000000000000A001980000000000E0020E00000000802600400000000000000080E9B8
:2B0CC400020000000000000000000000000000800140000000000000000000000000000620080000000000000088FC90
:2B0CEF00000000000000000000000000000000800118000000000060000600000000001620000000000000000080A283
:2B0D1A00000000000001000000000000000000000880000000000000000000000000000002200000000000000080F78C
:2B0D4500000000E0010000000000000000000020020600000000009881860000000080099800000000000000008082B8
:2B0D70000000008081000000000000000000002000000000000000008004000000000026600100000000000000809913
:2B0D9B0002000040000000000000000000000040009C000000000030010D04000000000770000000000000000088933B
:2B0DC600000000800000000000000000000000A00100010000000020801000000000000000000000000000000000FC34
:2B0DF100000000004100000000000000000000A00138000000000000C00E00000000001E60020000000000000000DD92
:2B0E1C00000000000200000000000000000000800100000000000020080001000000000000000000000000000000E619
:2B0E4700000000800300000000000000000000800118000000000020000E000000000006600000000000000000089038
:2B0E72000200000000200000000000000000000004180000000000002010000000000000002000000000000000009B2C
:2B0E9D0002000000000200000000000000000060029E000000000098800100000000808698000000000000000080816E
:2B0EC800020000000002000000000000000000800120000000000060010000000000800460000000000000000080B3E2
:2B0EF300020000000004000000000000000000C00524000000000070001500000000000DF402000000000000000099C4
:2B0F1E0000000000001A00000000000000000000001800000000000000040000000080000002000000000000008881E7
:2B0F490000000000001A000000000000000000804018000000000060020004000000801EE0000000000000000080E641
:2B0F7400000000000018000000000000000000800318000000000000008400000000000000000000000000000000908B
:2B0F9F00020000000018000000000000000000000318000000000060000400000000004660000000000000000080F078
:2B0FCA001A0000000008000000000000000000800008000000000020000200000000000220000000000000000000F519
:2B0FF500000000000000000000000000000000000000000000000000000000000000000000000000000000000080E76A
:2B102000800008800004800008800008800008400004000000000010000120000220000110000220000220000200AF64
:2B104B00800008800008800008800008800008800008000000000020000220000220000220000220000220000280E717
:2B107600000000A00080020000000000000000A00AC000000000002800A000000000002000000000000000000080A1BA
:2B10A100000000000000000000000000400000010010000000000000000000000000000000000000020000A200009F90
:2B10CC00000000000000000000000000000000000000000000000000000000000000000000000000000000000080E792
:2B10F700000000000000000000000000000000800000000000000000000000000000000000000000000000000000EF5F
:2B112200000000200080000000000000400000210AD0000000000008002000000000002000000000020000A20000F1EA
:2B114D00000000000000000000000000000000000000000000000040000200000000000600000000000000000080E7C8
:2B117800000000400000000000000000000000400008000000000000000000000000000000000000000000000000EFD5
:2B11A300000000000000000000000000000000000000000000000000000000000000000000000000000000000080E7BA
:2B11CE00000000000000000000000000000000000004000000000000100001000000000001100000000000000080A7A9
:2B11F9000000000010000000000000000000000010000100000000000008000000000008001000000000000000A0D416
:2B122400000000000001000000000000000000000000100000000080000800000000000880000000000000000080E717
:2B124F00000000000000000000000000000000000000000000000000000000000000000000000000000000000080E70D
:2B127A00000000000000000000000000000000000000000000000000000000000000000000000000000000000080E7E2
:2B12A500000000000000000000000000000000000000000000000000400004000000000004400000000000000080E72F
:2B12D0000000000020000000000000000000000020000000000000000000000000000080000800000000000000A0C5C6
:2B12FB00000000000004000000000000000000400000080000000000200002000000000002200000000000000080EFC9
:2B132600000000000000000000000000000000008000000000000000000000000000000004000000000000000080AFE9
:2B135100000000000000000000000000000000000000000000000000000000000000000000000000000000000080E70A
:2B137C00000000000000000000000000000000000000000000000000002000000000000000020000000000000080E7BD
:2B13A700000000000000000000000000000000000000000000000000000000000000000000000000000000000080E7B4
:2B13D200800000000000000008000000000000000000000000000000000020000000000000000000000000000090D4E4
:2B13FD00000000000000000000000000000000000000000000000000000000000000000000000000000000000080E75E
:2B142800020000000000000000000000000000000000000000000000000000000000000000000000000000000080E532
:2B145300080200000000000020000000000000000000000000000000000080000000000000000000000000000000EFD5
:2B147E00000000000000000000000000000000000000000000000000000000000000000000000000000000000080E7DC
:2B14A900000000000000000000000000000000000000000000000000000000000000000000000000000000000080E7B1
:2B14D400000000000000000000000000000000000000000000000000000000000000000000000000000000000080E786
:2B14FF00000000000000000000000000000000000000000000000000000000000000000000000000000000000080E75B
:2B152A00080000000000000000000000000000000000000000000000000000000000000000000000000000000090FE00
:2B155500000000000000000000000000000000000000000000000000000000000000000000000000000000000080E704
:2B158000000000000000000000000000000000000000000000000000000000000000000000000000000000000080E7D9
:2B15AB00000000000000000000000000000000000000000000000000000000000000000000000000000000000080E7AE
:2B15D600000000000000000000000000000000000000000000000000000000000000000000000000000000000080E783
:2B16010000000000000000008200000000000000000000000000000000000000000000000000080000000000408483ED
:2B162C00020000000000000000000000000000000000000000000000000000000000000000000000000000000008ED9C
:2B165700000000000000000000000000000000000000000000000000000000000000000000000000000000000080E701
:2B168200000000000000000000000000000000000000000000000000000000000000000000000000000000004084A3D6
:2B16AD00000000000000000082020000000000000000000000000000000000000000000000000800000000000080C541
:2B16D800000000000000000000000000000000000000000000000000000000000000000000000000000000000080E780
:2B170300020000000000000000000000000000000000000000000000000000000000000000000000000000000008EDC4
:2B172E00800008800008800008800008800008800008000000000020000220000220000220000220000220000280E72D
:2B175900800008800008800008800008800008800008000000000020000220000220000220000220000220000280E702
:2B178400000000000000000000000000000000000000000000000000000000000000000000000000000000000080E7D3
:2B17AF00020000000000A0011B020000000000000000000000000000000000000000000000800604000000000088D16C
:2B17DA00020000000000200112000000000000000000000000000000000000000000000000800400000000000000A982
:2B180500040000000000401334010000000000000000000000000000000000000000000000004D00000000000000B22D
:2B183000020000000000200882000000000000000000000000000000000000000000000000802000000000000000EF52
:2B185B00020000000000A0033A000000000000000000000000000000000000000000000000800E000000000000808BEA
:2B188600020000000000004000100000000000000000000000000000000000000000000000000000000000000008F9E4
:2B18B1000000000000008003380000000000000000000000000000000000000000000000000046000000000000808506
:2B18DC00000010000000000110000000000000000000000000000000000000000040000000000400000000000080F606
:2B190700A021121000002001130200000000000000000000000000000000680800484000008004040000000000808913
:2B193200220102000000200002000000000000000000000000000000000048000008000000800000000000000088B03B
:2B195D0040133C010000C0133C0100000000000000000000000000000000D00400F0040000004F00000000000008B6EA
:2B198800200002000000200002000000000000000000000000000000000008000008000000800000000000000010FE52
:2B19B300A00BBA000000A00BBA0000000000000000000000000000000000E80200E8020000802E000000000000088332
:2B19DE00004000100000004000100000000000000000000000000000000000000080000000000000000000000088EF47
:2B1A09008203380000008003380000000000000000000000000000000000600400600000000046000000000000088B9D
:2B1A34000001100200000081000100000000000000000000000000000000400000400800000004020000000000809153
:2B1A5F0020213200000020013A0000000000000000000000000000000000480800C8000000800400000000000000A949
:2B1A8A00200002000000204112000000000000000000000000000000000008000008000000808400000000000000A7E1
:2B1AB500C2133C0100004001340100000000000000000000000000000000F00400F00400000005000000000000089BEE
:2B1AE000220882000000200482000000000000000000000000000000000008020008020000800000000000000080A9CC
:2B1B0B00A4011A000000A0031A000000000000000000000000000000000068000068000000801600000000000000AE1F
:2B1B36000240001000008009001000000000000000000000000000000000000000800000000026000000000000009C57
:2B1B6100820338000000800138000000000000000000000000000000000060040060000000000600000000000080A5F4
:2B1B8C00021000000000002110080000000000000000000000000000000000040000000000000002000000000008C213
:2B1BB700A0031A1000002003120000000000000000000000000000000000E8000068400000800900000000000000AE3A
:2B1BE20020011200000020001200000000000000000000000000000000004800004800000000060000000000008090CD
:2B1C0D00401334010000C013540000000000000000000000000000000000D00400D0040000001F00000000000080FEB8
:2B1C3800220002000000200002000000000000000000000000000000000008000008000000001000000000000008EC27
:2B1C6300A0099A000000A0093A100000000000000000000000000000000068020068020000000E00000000000080B30B
:2B1C8E00004000100000004018000000000000000000000000000000000000000080000000000000000000000080EE95
:2B1CB900800338000000800398000000000000000000000000000000000060040060000000000600000000000000A7B9
:2B1CE400001100080000008010010000000000000000000000000000000040040000200000000002000000000080A79E
:2B1D0F002203260000006002320000000000000000000000000000000000C8000098000000800900000000000008A138
:2B1D3A00200018000000800102000000000000000000000000000000000008000060000000000600000000000000EF66
:2B1D6500C013BC000000C0093C0100000000000000000000000000000000F00400F0020000002F00000000000000B6F3
:2B1D9000200400000000000042000000000000000000000000000000000008010000000000002000000000000000ECAD
:2B1DBB00A0019800000080071A000000000000000000000000000000000068000060020000000E00000000000088E5DE
:2B1DE600024000000000000000100000000000000000000000000000000000000000000000000000000000000080F10F
:2B1E1100820318000000800138000000000000000000000000000000000060040060000000000600000000000080877F
:2B1E3C00028000080000008040000000000000000000000000000000000000000000010000001000000000000080A9F7
:2B1E6700620226000000600226000000000000000000000000000000000098010018000000800100000000000080FD8F
:2B1E9200800598000000800100000000000000000000000000000000000000010000010000000000000000000008B2CB
:2B1EBD00C0011C000000C00B6C0000000000000000000000000000000000B00000D000000000250000000000000083BE
:2B1EE80000004000000000080800000000000000000000000000000000002000004004000000440000000000008089CE
:2B1F1300800938000000800300100000000000000000000000000000000000400000000000000000000000000080AEE1
:2B1F3E000200000000000000280000000000000000000000000000000000A00000C0000000000C00000000000008E5F5
:2B1F69008001180000008001280000000000000000000000000000000000A00000C0000000000C00000000000000F6A9
:2B1F9400008000020000000000080000000000000000000000000000000000200000200000008000000000000080ED6B
:2B1FBF0060023A000000600426000000000000000000000000000000000098000098000000800E00000000000000B65D
:2B1FEA008009120000000004580000000000000000000000000000000000600200600200008004000000000000809A73
:2B201500C2013401000040011C000000000000000000000000000000000070000070000000004D000000000000889FF7
:2B2040000000420000000011800000000000000000000000000000000000000000000000008010000000000000809AF8
:2B206B00800B3A0000000000180000000000000000000000000000000000E00200E0010000800E00000000000080B3E9
:2B209600000000100000000300000000000000000000000000000000000000000000000000000000000000000080C4C8
:2B20C100800138000000000318000000000000000000000000000000000060000060000000004600000000000088850D
:2B20EC00020040000000002000080000000000000000000000000000000000200000080000008400000000000080CF64
:2B211700620406000000A003260000000000000000000000000000000000980000E8000000800C00000000000000C399
:2B214200020400000000200118000000000000000000000000000000000060010048000000800000000000000000AA60
:2B216D00C202540000004013BC0000000000000000000000000000000000700000D0040000004F00000000000000C6C7
:2B219800800010010000200080000000000000000000000000000000000000000008000000800000000000000008D784
:2B21C300000001000000A007380000000000000000000000000000000000600200E8010000801E00000000000080F7B1
:2B21EE00800230000000004000000000000000000000000000000000000000000080000000000000000000000080FADA
:2B221900800230000000800318000000000000000000000000000000000060000060000000004600000000000000BE89
:2B2244008A0008000000800008000000000000000000000000000000000020000020000000000200000000000080CFC4
:2B226F00000000000000000000000000000000000000000000000000000000000000000000000000000000000080E7DD
:2B229A00400004800008400004800008800008800008000000000020000210000210000220000120000220000280D472
:2B22C500800008800008800008800008800008800008000000000020000220000220000220000220000220000280E78B
:2B22F000200002000000000000000000000000000000000000000000000000020000000000000000000000000080E53A
:2B231B00000000000000000000000000400000010000000000000000000000000000000000000000040000440180F796
:2B234600000000000000000000000000000000000040000000000000000000000000000000000000000000000080A309
:2B237100000000000000000000000000000000000000000000000000000000000000080000000000000000000080EFCA
:2B239C00200002000000000000000000400000010040000000000000000000020000000000000000040000440180B1F7
:2B23C700000000000000000000000000000000000000000000000000000040000010000000000400000000000080F621
:2B23F200000000080000000000080000000000000000000000000000000000000000000000000000000000000080E749
:2B241D00000000100000000001000000000000000000000000000000000000000000400000000004000000000080E7D8
:2B244800004000040000004000040000000000000000000000000000000000100000100000000001000000000080F749
:2B247300000000000000000000080000000000000000000000000000000000000000000000000000000000000080EFC7
:2B249E00000000000000001000000000000000000000000000000000000000000000000000000800000000000000E615
:2B24C900000000000000000000000000000000000000000000000000000000000000000000000000000000000080E781
:2B24F400400004000000400004000000000000000000000000000000000010000010000000000100000000000080F69E
:2B251F00000001000000000000100000000000000000000000000000000000400000000000000000000000000080A719
:2B254A00000010000000002100020000000000000000000000000000000000000040000000008400000000000080EF00
:2B257500000000000000000000000000000000000000000000000000000000000000000000000000000000000080E7D4
:2B25A000000000000000000000000000000000000000000000000000000000000000000000000000000000000080E7A9
:2B25CB00800008000000800008000000000000000000000000000000000020000020000000000200000000000080C54E
:2B25F600000840000000000C00000000000000000000000000000000000000000000010000001000000000000080E7EE
:2B262100020000000000000000000000000000000000000000000000000000000000000000000000000000000080E527
:2B264C00000000000000000000800008000000000000000000000000000000000200000000000000000000000080C594
:2B267700000000000000000000000010000000000000000000000000000000000000000000000000000000000080F6B2
:2B26A200000000000000000000000000000000000000000000000000000000000000000000000000000000000080E7A6
:2B26CD00000000004000000000000000040000000000000000000000000000000001000000000000000000000008FF96
:2B26F800000000000000000000000000000000000000000000000000000000000000000000000000000000000080E750
:2B272300000000000000000000000000000000000000000000000000000000000000000000000000000000000080E724
:2B274E00000000000000000000000000000000000000000000000000000000000000000000000000000000000080E7F9
:2B277900000000000000000000000000000000000000000000000000000000000000000000000000000000000080E7CE
:2B27A400000000000000000000000000000000000000000000000000000000000000000000000000000000000008EF13
:2B27CF00000000000000000000000000000000000000000000000000000000000000000000000000000000000080E778
:2B27FA00000000000000000000000000000000000000000000000000000000000000000000000000000000000080E74D
:2B282500000000000000000000000000000000000000000000000000000000000800000000000080000000000080E799
:2B285000000000000000000000000000000000000000000000000000000000000000000000000000000000000080E7F6
:2B287B00000000000020000000000002000000000000000000000000000000000000000000000008000000004005B90A
:2B28A600020000000000000000000000000000000000000000000000000000000000000000000000000000008008E598
:2B28D100000000000000000000000000000000000000000000000000000000000000000000000000000000000080E775
:2B28FC00000000000000000000000000000000000000000000000000000000000000000000000000000000000081F739
:2B292700000000000020000000000002000000000000000000000000000000000000000000000008000000004004A96E
:2B295200000000000000000000000000000000000000000000000000000000000000000000000000000000000080E7F3
:2B297D00020000000000000000000000000000000000000000000000000000000000000000000000000000000008ED38
:2B29A800800008800008800008800008800008800008000000000020000220000220000220000220000220000280E7A1
:2B29D300800008800008800008800008800008800008000000000020000220000220000220000220000220000280E776
:2B29FE00000000000000000000000000000000000000000000000000000000000000000000000040100000000482D701
:2B2A290002000000000000000000003A0800000000000000000000000000000000000000000000C8000000800708CD1A
:2B2A5400000000000000000000000012100000000000000000000000000000000000000000000008400000000604A83B
:2B2A7F000000000000000000000000340000000000000000000000000000000000000000000000F0000000000700946D
:2B2AAA00000000000000000000000082000000000000000000000000000000000000000000000008020000000680AB44
:2B2AD50000000000000000000000003A0000000000000000000000000000000000000000000000E8000000002600F698
:2B2B000002000000000000000000000000000000000000000000000000000000000000000000000000000000260889F1
:2B2B2B00000000000000000000000018100000000000000000000000000000000000000000000060080000000600E603
:2B2B5600000000000010040000000010010000000000000000000000000000000000000000000040080000000282ACB7
:2B2B8100000000000032000000000032000000000000000000000000000000800E020000000000C80000008007009A4C
:2B2BAC0002000000000210000000000210000000000000000000000000000080040400000000000840000000060C8F67
:2B2BD70000000000003C00000000003C000000000000000000000000000000000D000000000000F0000000000780B225
:2B2C02000000000000020000000000020000000000000000000000000000008000000000000000080000000006808114
:2B2C2D000000000000BA0000000000BA000000000000000000000000000000802E000000000000E80200000026808347
:2B2C58000000000000000000000000000000000000000000000000000000000000000000000000000000000026808328
:2B2C83000200000000181000000000181000000000000000000000000000000086000000000000600800000006088B4D
:2B2CAE00000000000040000000000010000000000000000000000000000000000400000000000000100000000082C64F
:2B2CD900000000000026000000000032080000000000000000000000000000800C020000000000E8000000800000B4C6
:2B2D0400000000000000000000000002100000000000000000000000000000800004000000000048400000801600FCF4
:2B2D2F0002000000005400000000003C000000000000000000000000000000000F000000000000D0000000000F08D61B
:2B2D5A00020000000010010000000082000000000000000000000000000000802000000000000008020000802008D790
:2B2D850004000000000000000000001A000000000000000000000000000000800600000000000068000000800690A55C
:2B2DB000020000000030000000000000000000000000000000000000000000000000000000000000000000000008DEE0
:2B2DDB00020000000030000000000018100000000000000000000000000000008600000000000060080000000688B146
:2B2E060002000000001002000000101008000000000000000000000000000000440000000000004020000000040AA60D
:2B2E3100000000000032000000A00312000000000000000000000000000000800C00000000000048000000800200F445
:2B2E5C00000000000002100000200113000000000000000000000000000000800004000000000048080000800404C7E2
:2B2E870000000000003C000000400374000000000000000000000000000000000F00000000000050000000000580AF9A
:2B2EB20002000000000200000020000200000000000000000000000000000080000000000000000801000080048880BA
:2B2EDD0002000000009A000000A0091A0100000000000000000000000000008026000000000000E800000080140092B6
:2B2F0800040000000000000000000218000000000000000000000000000000000000000000000060000000000400FA22
:2B2F3300020000000018100000800198000000000000000000000000000000008600000000000060020000002480A004
:2B2F5E0002000000000004000000110001000000000000000000000000000000400000000000000020000000068292B6
:2B2F890002000000003A00000020033A000000000000000000000000000000800E00000000000098000000800388B2A1
:2B2FB4000000000000121000002000131000000000000000000000000000008004040000000000600200000006049900
:2B2FDF00000000000034000000C00334000000000000000000000000000000000D000000000000F0000000000700C9CF
:2B300A00000000000042000000200442000000000000000000000000000000801000000000000000020000000600EE6D
:2B30350002000000001A000000A0011A000000000000000000000000000000800600000000000060000000002608B8CD
:2B306000000000000000000000000200000000000000000000000000000000000000000000000000000000002680A1FC
:2B308B0000000000001810000080011810000000000000000000000000000000860000000000006000000000060090CD
:2B30B600000000008000080000008100080000080000000000000000000000000000000000000000200462200084BCF0
:2B30E10000000060022600000020012600001A000000000000000000000000801900000000000098800408800900F1A4
:2B310C0002000080011800000020059800000208000000000000000000000000100000000000006080040A402008E8E8
:2B313700000000C0079C00000040031C00003C000000000000000000000000000B000000000000F0020D70000180A5CF
:2B316200000000000400000000200080000002000000000000000000000000004200000000000000804408000000C5C9
:2B318D00000000800378000000A0033900005A0000000000000000000000000000000000000000E0810468010080AAEE
:2B31B800020000000000000000800100000018000000000000000000000000000A00000000000000000400000688EDC8
:2B31E300000000800118000000800518000000000000000000000000000000000A00000000000060001260000600C4E5
:2B320E000000000000000800000000000800000000000000000000000000000000020000000000000100000000848678
:2B323900000000A083260000006006260000000000000000000000000000008009000000000000180000008007008DE0
:2B3264000000002001190000000020180000000000000000000000000000000026000000000000000000000006848697
:2B328F000200004003BC000000C000BC000000000000000000000000000000000700000000000050010000000908E44A
:2B32BA00000000200440000000801040000000000000000000000000000000000000000000000040040000002000C889
:2B32E500000000A00318000000000018000000000000000000000000000000002E00000000000000000000000680FE39
:2B3310000000000002000000008002000000000000000000000000000000000000000000000000C0000000000080AB23
:2B333B000200008001180000008002180000000000000000000000000000000006000000000000C00000000006889A44
:2B336600000000000100020000008040008000000000000000000000000000000002000000000000080000000682DE89
:2B33910000000020833A0000006002262000000000000000000000000000008009000000000000E8000000800580ED29
:2B33BC00000000200013100000800500A00100000000000000000000000000000600000000000048400000000604DE07
:2B33E700000000C00334000000C0014CC007000000000000000000000000000027000000000000D0000000000700D220
:2B341200020000200002000000000008A10100000000000000000000000000001000000000000008000000000688B269
:2B343D00000000A0077A000000800900A001000000000000000000000000000006000000000000E8010000002600AA5A
:2B3468000000000002000000000000280000000000000000000000000000000000000000000000000000000026008B5E
:2B349300000000800118100000800128000000000000000000000000000000000600000000000060080000000680AA1E
:2B34BE00000000800008000000800008800008000000000000000000000000000200000000000020000220000280C5C0
:2B34E900000000000000000000000000000000000000000000000000000000000000000000000000000000000080E751
:2B351400800008400004800008400004400004800008000000000020000220000120000220000210000110000180D42B
:2B353F00800008800008800008800008800008800008000000000020000220000220000220000220000220000280E7FE
:2B356A000000000008000000000000004C00000100000000000000000000000A00000000000000000C0000540100E98D
:2B359500000000000000000000000000000000000000000000000000000000000000040000000000000000100080F384
:2B35C000000000000000000000000000000000400040000000000000000000000000000000000000000000000080E3FD
:2B35EB00000000000000000000000000800000020000000000000000000000000000000000000000080000080200CF52
:2B361600000000000800000000000000480000410040000000000000000000020000040000000000040000540100ED6C
:2B364100000000400000100000400000100000000000000000000000000000000000000000000000000000000080E757
:2B366C00000000000000000000000000000000000000000000000000000000000000000000000000000000400084E788
:2B369700000000000000000000000000000000000000000000000000000000000000000000000000000000000080E7A1
:2B36C200000000004080040000004000040000040000000000000000000000000001000000000000120001000000F1CC
:2B36ED00000000000000000000000000000000000000000000000000000000000000000000000000000000000080E74B
:2B371800000000000000000000000200000000000000000000000000000000000000000000000080000000000000C53F
:2B374300000000000000000000000000000000000000000000000000000000000000000000000000000000000080E7F4
:2B376E00000000000004000000400004000000000000000000000000000000000100000000000010000000000080A7B0
:2B379900000000000000000000000000000000000000000000000000000000000000000000000000000000000080E79E
:2B37C400000000000010000000002110022000020000000000000000000000000400000000000040088400088080B2EB
:2B37EF00000000000000000000000000000000000000000000000000000000000000000000000000000000000080E748
:2B381A00100000000000000000000000000000000000000000000000000000000000000000000000000000000080F7FC
:2B384500000000000000000000008000000000000000000000000000000000000000000000000000000000000080EF69
:2B38700000000000804008000000800008000000000000000000000000000000000200000000000021000000008282B6
:2B389B00000000000000000000000000000000000000000000000000000000000000000000000000000000000080E79B
:2B38C600000000000000000000000000000000000000000000000000000000000000000000000000000000000080E770
:2B38F100000000000000000000000000000000000000000000000000000000000000000000000000000000000080E745
:2B391C00000000000000000000000000000000000000000000000000000000000000000000000000000000000080E719
:2B394700401004411004411004411004411004411004010000000010044110044110044110044110044110044180E7F2
:2B397200601886611886611886611886611886611886010000000018866118866118866118866118866118866180E7CF
:02399D00FFFF2A
:00000001FF
