:020000040000FA
:2B000000FFFF62FF2500FFFFFFFFFFFFFFFFFFFFFFFFFFFFFFFFFFFFFFFFFFFFFFFFFFFFFFFFFFFFFFFFFFFFFFFFFF76
:2B002B00601886611886611886611886611886611886010000000018866118866118866118866118866118866180E74F
:2B005600401004411004411004411004411004411004010000000010044110044110044110044110044110044180E71C
:2B008100000000000000000000000000000000000000000000000000000000000000000000000000000000000080E7ED
:2B00AC00000000000000000000000000000000000000000000000000000000000000000000000000000000000080E7C2
:2B00D700000000000000000000000000000000000000000000000000000000000000000000000000000000000080E797
:2B010200000000000000000000000000000000000000000000000000000000000000000000000000000000000080E76B
:2B012D00000000000000000000000000000000000000000000000000000000000000000000000000000000000080E740
:2B015800000000000000000000000000000000000000000000000000000000000000000000000000000000000080E715
:2B018300000000000000000000000000000000000000000000000000000000000000000000000000000000000080E7EA
:2B01AE00000000000000000000000000000000000000000000000000000220000000000000000000000000000080E79D
:2B01D900080000040000000000000200040000000000000000000000000000000000000000000000000000000080CD9C
:2B020400000000000000000000000000000000000000000000000000000000000000000000000000000000000080E768
:2B022F00020000000000000000000000000000000000000000000000000000000000000000000000000000000080E53D
:2B025A00000000000000000000000000000000008000000000000000000000000000000000000000000000000080EF8A
:2B0285000000000000000000000000000000000000000000000000000000000000000000000000000000000000A0C5E9
:2B02B000080000000000000000000000000000000000000000000000000880000000000000000000000000000080EF24
:2B02DB00000000000000000000000000000000000000000000000000000000000000000000000000000000000080E791
:2B030600000000000000000000000000000000000000000000000000000000000000000000000000000000000080E765
:2B03310000000C000000000000C00400000000000000000000000000000000000000000000000000000000000080A3AE
:2B035C00000000000000000000000000000000000000000000000000000000000000000000000000000000000080E70F
:2B038700000000000000000000000000000000201080000000000000010000000000000100000000000080004182E373
:2B03B200020000000000000000000000000000000000000000000000000000000000000000000000000000000008ED29
:2B03DD00000000000000000000000000000000000000000000000000000000000000000000000000000000000080E78E
:2B040800000000000000000000000000000000000000000000000000000000000000000100000000000080004102C342
:2B043300000000000000000000000000000000201080020000000000010000000000000000000000000000000000C526
:2B045E00000000000000000000000000000000000000000000000000000000000000000000000000000000000080E70C
:2B048900020000000000000000000000000000000000000000000000000000000000000000000000000000000008ED51
:2B04B400800008800008800008800008800008800008000000000020000220000220000220000220000220000280E7BA
:2B04DF00800008800008800008800008800008800008000000000020000220000220000220000220000220000280E78F
:2B050A00000000000000000000000000000000000000000000000000000000000000000000000000000000000080E75F
:2B053500020000000000000000202000000000000000000000000000000000000000000000000000000000000008CF82
:2B056000020000000000000000A00900000000000000000000000000000000000000000000000000000000000008D4E9
:2B058B00040000000000000000C0030000000000000000000000000000000000000000000000000000000000001089E5
:2B05B600020000000000000000200000000000000000000000000000000000000000000000000000000000000008CD23
:2B05E100020000000000000000A01100000000000000000000000000000000000000000000000000000000000088D5DF
:2B060C00020000000000000000000000000000000000000000000000000000000000000000000000000000000008EDCC
:2B063700000000000000000000800100000000000000000000000000000000000000000000000000000000000000FE19
:2B066200000000000000000000000000000000000100000000000040000000000000000000000000000000000080B2FA
:2B068D000000000000000000002020000000002005000000000000C80400000000E80400000000000000000000809213
:2B06B800020000000000000000A00100000000201000000000000008000000000048000000000000000000000088B1BB
:2B06E300000000000000000000C00B00000000C001000000000000F02000000000D0200000000000000000000000E779
:2B070E00000000000000000000200000000000200101000000000008000000000008000000000000000000000080E608
:2B073900000000000000000000A023000000002003000000000000E80200000000E8020000000000000000000000EDEE
:2B076400000000000000000000000000000000800100000000000000000000000080000000000000000000000080FEEB
:2B078F00020000000000000000800100000000800B000000000000600400000000E0000000000000000000000008CB1A
:2B07BA00000000000000000000000200000000000100000000000000004000040440000000000000000000000080D435
:2B07E500000022080000000000200000000000200700000000000098C00EE8804CC8040000000000000000000080C34F
:2B08100000009A000000000000A00900000000201000000000000000818008880008000000000000000000000080C76A
:2B083B0002001C000000000000C00100000000C00100000000000090000770000FF2200000000000000000000008A51D
:2B086600020022000000000000200000000000200500000000000000802448822008020000000000000000000080B234
:2B08910004003A000000000000A041000000002001000000000000A0810448800668000000000000000000000000D7CA
:2B08BC00020000000000000000000000000000800900000000000020200080000081000000000000000000000080EED7
:2B08E7000200180000000000008001000000008001000000000000A0004660000EE0000000000000000000000080DA3C
:2B091200020000000000000000000200000000000500000000000000004000040040040000000000000000000008DA47
:2B093D000000220800000000002000000000002003000000000000E8840EE8804E480000000000000000000000009218
:2B09680000001A000000000000A00100000000201000000000000048808008880408000000000000000000000000CEC7
:2B09930000009C000000000000C00900000000C001000000000000D0200770000DF2200000000000000000000080E924
:2B09BE00000002040000000000200000000000200100000000000008800448800008000000000000000000000088D211
:2B09E90002003A000000000000A01100000000204300000000000068822448822668020000000000000000000000BD6E
:2B0A1400020000000000000000000000000000800100000000000000000081000081000000000000000000000000FC36
:2B0A3F00020018000000000000800100000000800900000000000060040EE0000EE00000000000000000000000809E0A
:2B0A6A00020020000000000000000200000000000000000000000040040002044400040000000000000000000080C566
:2B0A95000000020000000000002000000000006002010000000000488001E8800468000000000000000000000008A468
:2B0AC00000005A000000000000A0050000000000100000000000000800000C880048000000000000000000000080EAAE
:2B0AEB0000001C000000000000C001000000004002000000000000F0200770000FD2200000000000000000000000F049
:2B0B1600000022000000000000200000000000004000000000000008012008811008010000000000000000000080C324
:2B0B410000003A000000000000A02300000000800000000000000068000068800668000000000000000000000088E5E1
:2B0B6C000200000000000000000000000000008000000000000000000004C0000081000000000000000000000000FD9A
:2B0B97000200180000000000008001000000008080000000000000600414C0000EE0000000000000000000000080866C
:2B0BC200020000000000000000000000000000000000000000000000044000040000000000000000000000000080E15D
:2B0BED0002003E010000000000E01300000000E04100000000000068800EE880017C400000000000000000000080905D
:2B0C1800000000100000000000000001000000000000000000000048808008080004400000000000000000000088A3D9
:2B0C43000000040000000000004000000000004003010000000000D020077000071000000000000000000000000097E9
:2B0C6E00000050000000000000000100000000808100000000000008800008000040010000000000000000000080FFB9
:2B0C9900000010000000000000000900000000800100000000000068811668012040000000000000000000000000D7F7
:2B0CC4000200800000000000000008000000000001000000000000000004C0002400000000000000000000000088BA50
:2B0CEF00000000000000000000000200000000008100000000000060044440000400020000000000000000000080FCED
:2B0D1A00000020000000000000000000000000008000000000000000004000204000000000000000000000000080ED01
:2B0D4500000002000000000000E01300000000E00300000000000078C00E18800618400000000000000000000080B936
:2B0D700000005A000000000000000001000000000000000000000000C08000C004004000000000000000000000008633
:2B0D9B0002003C000000000000400000000000400301000000000010000770000D72000000000000000000000008A6B7
:2B0DC6000000020400000000000009000000008001010000000000408010008210000000000000000000000000809DF2
:2B0DF10000003A000000000000000100000000800100000000000040810E00800E80020000000000000000000000B389
:2B0E1C00000000000000000000000000000000000100000000000000010441000041020000000000000000000080B1F0
:2B0E4700000018000000000000008200000000008100000000000000000C40010E40000000000000000000000088E65C
:2B0E7200020000000000002000000000000000000000000000000000000002200000000000000000000000000080E7AA
:2B0E9D0002003E010000E00100E01322080000E01300000000000018C0011880079C400000000000000000000080F331
:2B0EC80002000010000000000000001B000000000000000000000000400004400004000000000000000000000000DC6E
:2B0EF30002000400000040030140007C000000400301000000000070000770000110010000000000000000000000ACE5
:2B0F1E00000050000000800100000522000000804100000000000000000000001400010000000000000000000008AD25
:2B0F490000003000000080010100011A000000800300000000000000022000020CA0000000000000000000000000AAB3
:2B0F7400000000000000008100000000000000000100000000000040001440011020200000000000000000000080A8C3
:2B0F9F00000080000000000300000A180000000081000000000000C0020C400000A00000000000000000000000809241
:2B0FCA001A0008000000000000800008000000800000000000000020000220000220000000000000000000000080DF0F
:2B0FF500000000000000000000000000000000000000000000000000000000000000000000000000000000000080E76A
:2B102000800004800008800008400004800008400008000000000010000110000110000220000220000220000280D40F
:2B104B00800008800008800008800008800008800008000000000020000220000220000220000220000220000280E717
:2B107600000082000000000000A002100C00000000000000000000300000040CD510000000000000000000000080E684
:2B10A1000000000000000000000000140002000000000000000000000000000000000000880000108000108200809E46
:2B10CC00000000000000000000000000000000000000000000000000000000000000000000000000000000000080E792
:2B10F700000000000000800000000000000000000000000000000000000000000000000000000000000000000000EF5F
:2B112200000082000000000000200214080200000000000000000010000004045110000088000010800010820000E4D9
:2B114D0000000000000000000000110400000000000000000000006000041000022000000000000000000000008084C8
:2B117800000000100000000000000001000000800000000000000000400004400004400000000000000000000000AF44
:2B11A30000000000000000800000000000000080A800000000000000200000000000200000000000000000000080EDCC
:2B11CE00000004000000004000000000000000000000000000000000100010000010100000000000000000000080A34F
:2B11F900000000000000000001004000000000000000000000000000500000000005500000000000000000000080A3C2
:2B122400000000000000000000000000000000000900000000000000008000080000000000000000000000000000F618
:2B124F00000000000000000000000000000000001000000000000000000000000000000000000000000000000080E6FE
:2B127A00000000000000000000000000000000001000000000000000000000000000000000000000000000000080E6D3
:2B12A500000000000000000000000000000000000000000000000000000000000000000000000000000000000080E7B7
:2B12D000000000000000000000000000000000000000000000000000000000000000000000000000000000000080E78C
:2B12FB00000000000000000000000000000000000000000000000000000000000000000000000000000000000080E761
:2B132600000000000000000000000000000000002001000000000040000000000440000000000000000000000080B1C6
:2B135100000000000000000000000000000000000000000000000000000000000000000000000000000000000080E70A
:2B137C00000080000000000200000000000000004000000000000000002000002000000000000000000000000000C183
:2B13A700080000000100000000000100000100000000000000000000000000000000000040000400000000000080FE4E
:2B13D200000000000000000000000000000000000000000000000000000000000000000000000000000000000080E789
:2B13FD00000000000000000000000000000000000000000000000000000000000000000000000000000000000080E75E
:2B142800020000000000080000000000000000000000080000000000000200200000000000000000000000000080E7FE
:2B145300000000000000000000000000000000000000000000000000000000000000000000000000000000000080E707
:2B147E00000000000000000000000000000000000000000000000000000000000000000000000000000000000080E7DC
:2B14A900000000000000000000000000000000000000000000000000000000000000000000000000000000000080E7B1
:2B14D400000000000000000000000000000000000000000000000000000000000000000000000000000000000080E786
:2B14FF000000000000000000000000000000000000000000000000000000000000000000000000000000000000C0A35F
:2B152A00000000000000000000000000000000000000000000000000000800000000000000000000000000000040A3AB
:2B155500000000000000000000000000000000000000000000000000000000000000000000000000000000000080E704
:2B158000000000000000000000000000000000000000000000000000000000000000000000000000000000000080E7D9
:2B15AB00000000000000000000000000000000000000000000000000000800000080000000000000000000000080E726
:2B15D600000000000000000000000000000000000000000000000000000000000000000000000000000000000080E783
:2B1601000000000000000000000000020000801000420000000000008000000000000000000000000000800000029B4D
:2B162C00020000000000000000000000000000000000000000000000000000000000000000000000000000000008ED9C
:2B165700000000000000000000000000000000000010000000000000000000000000000000000000000000000008FE52
:2B168200000000000000000000000000000000000000000000000000000000000000000000000000000080000012D6D5
:2B16AD0000000000000000000000000A0000801000420000000000008002000000000000000000000000000000889993
:2B16D800000000000000000000000000000000000000000000000000000000000000000000000000000000000008EFF0
:2B170300020000000000000000000000000000000000000000000000000000000000000000000000000000000008EDC4
:2B172E00800008800008800008800008800008800008000000000020000220000220000220000220000220000280E72D
:2B175900800008800008800008800008800008800008000000000020000220000220000220000220000220000280E702
:2B178400000000000000000000000000000010000000000000000000080040000000000000000000000000000080BAA8
:2B17AF00020000000000000000E011000000720000000000000000F80000C8040000000000000000000000000088F569
:2B17DA00020000000000000000800100000002010000000000000080000008000000000000000000000000000000D501
:2B18050004000000000000000040120000003C0000000000000000900000F0200000000000000000000000000000BDC9
:2B183000020000000000000000801000000012000000000000000040000008020000000000000000000000000080938C
:2B185B000200000000000000000002000000120200000000000000400200E8000000000000000000000000000080DCC4
:2B188600020000000000000000000101000098000000000000000000000080000000000000000000000000000088F59E
:2B18B100000000000000000000800100000038000000000000000000010060000000000000000000000000000080A2D0
:2B18DC00000000000000000000000000000050000098000000000000000040000040000000000000000000000080AB4E
:2B1907000000000000000000000000000000320000060000000000000000C80400C804000000000000000000008094D1
:2B193200020000000000000000000000000002010018010000000000000008000008000000000000000000000088D400
:2B195D0000000000000000000000000000003C00003C0000000000000000F02000F0200000000000000000000080E760
:2B198800000000000000000000000000000012000000100000000000000008000008000000000000000000000080C6BC
:2B19B3000000000000000000000000000000320400180000000000000000E80200E8020000000000000000000000E9FE
:2B19DE00000000000000000000000000000018000000000000000000000000000000000000000000000000000000FEC8
:2B1A09000200000000000000000000000000B80000000000000000000000604000600800000000000000000000089E4A
:2B1A3400000000000000000000000000000000000000000000000000004000000000000000000000000000000080E3E4
:2B1A5F000000000000000000000000000000000000A2000000000000800EE80400E80400000000000000000000008BC9
:2B1A8A00000000000000000000000000000000000002000000000000808048000048000000000000000000000000C7D8
:2B1AB5000200000000000000000000000000000000040000000000000007D02000D0200000000000000000000008DA37
:2B1AE00002000000000000000000000000000000001A00000000000080240802000802000000000000000000008092F5
:2B1B0B0004000000000000000000000000000000001A0000000000008004680000680000000000000000000000809627
:2B1B3600020000000000000000000000000000000018000000000000000080000000000000000000000000000080FC6E
:2B1B61000200000000000000000000000000000000180000000000000086600000600800000000000000000000009A57
:2B1B8C00020000000000000000000000000000000010000000000000044000000040040000000000000000000008BCD0
:2B1BB7000000000000000000000000000000000000A2000000000068800EE8040048000000000000000000000000C374
:2B1BE200000000000000000000000000000000000002000000000048808048000008000000000000000000000080CFEF
:2B1C0D000000000000000000000000000000000000640000000000D02007D02000F0200000000000000000000000E170
:2B1C38000200000000000000000000000000000000021000000000088004080000080000000000000000000000089930
:2B1C6300000000000000000000000000000000000022000000000068822468020068020000000000000000000008CF7B
:2B1C8E00000000000000000000000000000000000000000000000000000000000000000000000000000000000090F6A5
:2B1CB9000000000000000000000000000000000000200800000000604006644000600800000000000000000000088D91
:2B1CE400004100000000000000000000000000000000000000000040044000080000040000000000000000000008B24A
:2B1D0F00220322080000000000000000000000000062000000000048800E98000068000000000000000000000008E733
:2B1D3A002010020000000000000000000000000000020000000000088080800000480000000000000000000000808278
:2B1D6500C003040000000000000000000000000000040000000000F02007F00000D0200000000000000000000080BE53
:2B1D900020211A00000000000000000000000000001A000000000008811000020008010000000000000000000000DF30
:2B1DBB0022031A00000000000000000000000000001A0000000000688006000000680000000000000000000000889036
:2B1DE600820518000000000000000000000000000018000000000080000440020000000000000000000000000080BA1B
:2B1E11008001180000000000000000000000000000180000000000600004C4000060080000000000000000000080B62F
:2B1E3C00020000000000100000000000008100000010000000000040044000080000080000000000000000000080B90B
:2B1E67000200006010220000000000006001000000BA000000000048800E98000098000000000000000000000000CECD
:2B1E920002000080010200000000000080110000001A000000000008808080000080000000000000000000000088FD68
:2B1EBD00000000C0130400000000000040020000007C0000000000F02007F00000F0000000000000000000000000A0CE
:2B1EE80000000080011A00000000000080050000001A100000000008800000000000020000000000000000000080B1CA
:2B1F130000000080011A00000000000080030000003A000000000068811600020000000000000000000000000080E5E5
:2B1F3E00020000800118000000000000000000000018000000000000000440000040000000000000000000000088B009
:2B1F69000000008001180000000000008007000000380800000000604084C00200C0020000000000000000000080C104
:2B1F9400000000000000808100000000002000000080000000000000080002000000080000008600000000000080BAAF
:2B1FBF00000000000000E0010000000060023E1000060000000000F88001984000F8000000800F00000000000000C8C0
:2B1FEA0000000000000000400000000080210004005800000000008000080040008000000000060000000000000087BA
:2B201500020000000000400200000000C0011400001C000000000090000F90000090000000004700000000000008CB92
:2B204000000000000000800100000000800118080000000000000040002000000040010000000602000000000000B3F7
:2B206B000000000000008001000000008001380000280100000000C0010020010040000000000600000000000000B30C
:2B209600000000000000800100000000800110000018100000000000010420200000000000000000000000000000B8E8
:2B20C1000000000000008001000000008001100800100000000000000014A0000000020000000600000000000088E4A2
:2B20EC0002000000000000000001001802000000005000000000000004000200000000000008000000000000000086C8
:2B21170002000000000000002600003E60103E02001E000000000068800198400098400098000000000000000000D365
:2B214200020000000000000018100018082000040010020000000048000800400000010000000000000000000080E5FC
:2B216D0002000000000000001C00001C4002140000040000000000D0200F10000090000010040000000000000000817F
:2B219800000000000000000018000000020018080010010000000008000000010000000060200000000000000088BA06
:2B21C3000000000000000000180000180012180000200000000000E8012020000020010000000000000000000000939A
:2B21EE00000000000000000018000018000011000050000000000080001420200020200000000000000000000000F62B
:2B2219000000000000000000180000188000100800380000000000600004A00000A0000000000000000000000080EF87
:2B224400820008000008000000000000000008000008000000000020000220000020000000000000000000000000ED7E
:2B226F00000000000000000000000000000000000000000000000000000000000000000000000000000000000080E7DD
:2B229A00400004800004800008800008800004800004000000000010000110000210000220000220000220000200AFEF
:2B22C500800008800008800008800008800008800008000000000020000220000220000220000220000220000280E78B
:2B22F0000000011008800002000000040000000C408100000000000000B1100100100000C8000000000000000000CAF3
:2B231B00000000000002000000000000000200000000000000000000000000000000000000000010800008820000FE7B
:2B234600000000040000200000000020000000004000000000000000000000000000000040000000000000000080A187
:2B237100000000002000020008000008000000000000000000000000000000000000000020000000000000000080C5AA
:2B239C000000011008822002000000240002000800810000000000000031100100100000880000108000088200809D99
:2B23C700000000000000000000000000000040000000000000000010400034400020000000000000000000000080E364
:2B23F200000800000000000000000000000000000000000000000010000110000010000000000000000000000000E7A0
:2B241D000000000000000000000000000000A0020000000000000000000000200000200000000000000000000000C7EB
:2B244800000400000000000000000000000000010000000000000000000000100000100000000000000000000080A222
:2B2473000800000000000000000000000000000000000000000000001000001000001000000000000000000000C0BB8B
:2B249E00800000000000000008900021800209020028100000000000018000010000010000000000000000000080CE44
:2B24C900000000000000000000000000000000000000000000000000000000000000000000000000000000000080E781
:2B24F400000000000000002000000000022000000000000000000000000000000000000000088000000000000080E58E
:2B251F000000000000000000000000000000000800000000000000000000000000000000000000000000000000C0AB1E
:2B254A00080000000000000000000000000000000000000000000000000000000000000000000000000000000080EFEF
:2B257500000000840000000000800000800000000008040000000000000000000000000000000000000000000080E744
:2B25A000000000000000000000000000000000040000000000000040000000400040000000000000000000000080A329
:2B25CB00000000000000000000000000000000000000000000000000000000000000000000000000000000000080E77E
:2B25F600000000000000000800000040000400000000000000000000000000000000000000011000000000000000E776
:2B262100000000000100000000000000000000000000000000000000000000000000000000000000000040000480F6D3
:2B264C00100000000000000000000000000000000000000000000000000110000000000000000000000000000080F7CB
:2B267700000000000000000000000000000000000000000000000000000000000000000000000000000000000080E7D1
:2B26A200000000000000000000000000000000000000000000000000000000000020000000000200000000000080E784
:2B26CD00000000000000044020000000000000000000000000000000000000000000000000000000000000000080C539
:2B26F800000000000000000000000000000000000000000000000000000000000000000000000000000000000080E750
:2B272300020000000000000000000000000000000000000000000000000000000000000000000000000000000080E524
:2B274E00000000000000000000000000000000000000000000000000000000000000000000000000000000008080EF71
:2B277900000000000000000000000000000000000000000000000000000000000000000000000000000000000080E7CE
:2B27A400100000000000000000000000000000000000000000000000000000000080000000000800000000000080F7FB
:2B27CF00000000000000000000000000000000000000000000000000000000000000000000000000000000000080E778
:2B27FA00000000000000004000000000000000000000000000000000000000000000000000000000000000000080E311
:2B28250000000000000C401008020000000000000000000000000000000000000000000000000000000200000080C6DA
:2B285000000000000000000000000000000000000000000000000000000000000000000000000000000000000080E7F6
:2B287B000000010000002000000800000000000000400000000000000000000000000101000000000000C0004103EAD9
:2B28A600020000000000000000000000000000000000000000000000000000000000000200000000000000008208E594
:2B28D100020000000000000000000000000000000000000000000000000000000000000000000000000000000080E575
:2B28FC00040000000000000000000000000000000040000000000000000000000000000000000000000040000081F3B9
:2B292700020001000000200000080000000000000000000000000000000000000000010100000000000080004102F89D
:2B295200020000000000000000000000000000000000000000000000000000000000000000000000000000000080E5F3
:2B297D00020000000000000000000000000000000000000000000000000000000000000000000000000000000008ED38
:2B29A800800008800008800008800008800008800008000000000020000220000220000220000220000220000280E7A1
:2B29D300800008800008800008800008800008800008000000000020000220000220000220000220000220000280E776
:2B29FE00801100000000000050000000000000000000000000000000000000000000000000000000000000008000A2AB
:2B2A2900E20100000000000012000000000000000000000000000000000000000000000000000000000000800708DA24
:2B2A5400808100000000000002010000000000000000000000000000000000000000000000000000000000004000D340
:2B2A7F00C0030000000000001C000000000000000000000000000000000000000000000000000000000000000B00F64C
:2B2AAA00000000000000000012000000000000000000000000000000000000000000000000000000000000000082F677
:2B2AD5000000000000000000520000000000000000000000000000000000000000000000000000000000000000809272
:2B2B0000820100000000000098000000000000000000000000000000000000000000000000000000000000001088EC0B
:2B2B2B00800100000000000038000000000000000000000000000000000000000000000000000000000000000800C5F9
:2B2B5600000000000000000000000000000000000000000000000040000000000000000000000000000000001080A2E2
:2B2B81000000000000000000000000000000000000000000000000C8040000000000000000000000000000800100B626
:2B2BAC0002000000000000000000000000000000000000000000000800000000000000000000000000000000008AC5A5
:2B2BD7000000000000000000000000000000000000000000000000F0200000000000000000000000000000000980A199
:2B2C0200000000000000000000000000000000000000000000000008000000000000000000000000000000000A80CD48
:2B2C2D000000000000000000000000000000000000000000000000E80200000000000000000000000000000008008BFF
:2B2C5800000000000000000000000000000000000000000000000000100000000000000000000000000000000680912A
:2B2C83000200000000000000000000000000000000000000000000E000000000000000000000000000000000080AAB87
:2B2CAE00000000000000000000000000000000000000000000000000000000000400040000000000000000040080A3CC
:2B2CD9000000000000002082020200000000000000000000000000E8040000804CE80000000000000000180000009AD8
:2B2D0400000000000000A0099A000000000000000000000000000048000000800008080000000000000000040000A7DE
:2B2D2F00020000000000C0011C0000000000000000000000000000D0200000000F72000000000000000090000088A968
:2B2D5A000200000000002040021000000000000000000000000000080200008020480200000000000000E0000080D9AD
:2B2D8500040000000000A0033A0000000000000000000000000000680000008006480000000000000000E0000080C9E3
:2B2DB000020000000000000000000000000000000000000000000000100000000004100000000000000040010080E031
:2B2DDB000200000000008001180000000000000000000000000000E0000000000EE000000000000000008000008083E1
:2B2E0600020000000000000100000000000000000000000000000040040000000000008600000000000000001008D3E9
:2B2E3100000000000000200502080000000000000000000000000048000000804E008009000000000000008001809C0B
:2B2E5C0000000000000020101A0000000000000000000000000000080000008004000000000000000000000000029BD8
:2B2E8700000000000000C0039C0000000000000000000000000000F0200000000D02000904000000000000000900A7E5
:2B2EB200020000000000200102100000000000000000000000000008000000800000000602000000000000000C88EEAE
:2B2EDD0000000000000020133A000000000000000000000000000068020000802600000800000000000000000E0088AF
:2B2F0800000000000000800100000000000000000000000000000000100000000004000600000000000000000000C83B
:2B2F33000000000000008009180000000000000000000000000000E0000000000E00000000000000000000000E82A1B3
:2B2F5E00000000002000000240000000000000000000000000000000040000008000000000004000000000008080839F
:2B2F8900020000E0030020003E000000000000000000000000000068000000800F00000000800E00000000800108AB21
:2B2FB400000000808100A00500000000000000000000000000000048000000000000000000808000000000004080C381
:2B2FDF00000000C00100C001341000000000000000000000000000D0200000008100000000000700000000000D80CA32
:2B300A00000000800300204018000000000000000000000000000008010000001400000000801400000000000082C0AD
:2B303500000000800300A00378000000000000000000000000000068000000000C00000000800400000000000008D6FC
:2B306000020000800100000010080000000000000000000000000000100000000000000000000004000000001000B4D2
:2B308B000200008001008001300000000000000000000000000000E0000000001000000000000E00000000000800D709
:2B30B6000200000000000004000000000000000000000000000000000800000044000400000000000000000886808B00
:2B30E100020000000022E803261000000000000000000000000000980000008004E8000000000000000098800700BBA1
:2B310C0000000000001A004000000000000000000000000000000000000000800008080000000000000000004288FCE8
:2B31370000000000005C400124080000000000000000000000000070080000000F72000000000000000010040F00FC8C
:2B316200000000000002800100010000000000000000000000000000020000800008000000000000000040200602FFCD
:2B318D0000000000001A900728000000000000000000000000000000000000801668010000000000000000000600FD3C
:2B31B800020000000000000108080000000000000000000000000040000000000044100000000000000020081688E19E
:2B31E3000000000000180081280000000000000000000000000000C0020000000EC0000000000000000000000E80CF13
:2B320E00000000000020000001000000001000000000000000000000080800004000000000000000000060200400DAB6
:2B3239000000000000026002060400006000000000000000000000F88009008006000000000000000000F88047808DC9
:2B32640000000000005A000000100000000000000000000000000000008000800400000000000000000000008480824B
:2B328F0002000000003CC0211C000000401000000000000000000010080900000D02000000000000000090200F88EE24
:2B32BA00000000000002008000000000000000000000000000000040010402801000000000000000000060000600E743
:2B32E50000000000001A100200100000000000000000000000000040000000800E00000000000000000060000601C687
:2B331000000000000000000130000000800100000000000000000000008000000004000000000000000060000400B642
:2B333B00000000000018000311000000800100000000000000000000020000000E0000000000000000006000068A9921
:2B3366000200000021000000000000000000000000000000000000000000600880000400000000602000602080809C91
:2B33910002000060023EE1413E0100000000000000000000000000984000F88009E80000000000F88049F8800780E924
:2B33BC000200000000000000001000000000000000000000000000000100C0000008080000000000044040044480B007
:2B33E7000200004010044220040000000000000000000000000000900000F00087700000000000F0000FF0000F808A80
:2B3412000000000080500005100000000000000000000000000000000000602000080000000000E00008E000060AFE4C
:2B343D000000000000300001900000000000000000000000000000200100600020E80100000000E00008E00006809A31
:2B346800000000002000000880000000000000000000000000000020200060082440400000000060000600001680AC9D
:2B3493000000000000400000000000000000000000000000000000A00000600004C0000000000060000660010E00E64F
:2B34BE000A0000000008800008000000000000000000000000000020000000000220000000000200000000000000E520
:2B34E900000000000000000000000000000000000000000000000000000000000000000000000000000000000080E751
:2B351400800008800004400004800008800008800008000000000010000220000110000220000120000220000200AF4B
:2B353F00800008800008800008800008800008800008000000000020000220000220000220000220000220000280E7FE
:2B356A00000000400001000000000000000200000000000000000010000800000D140400000000140001108A0000D730
:2B359500000000100800010004000004000100000001000000000000000000000000000088000000000000000000FF61
:2B35C000000000000000000000000000000000000000000000000000000000000000000000000000000000000080E779
:2B35EB00000000000008000000000000000000000000000000000000000000000000000000000020000220080200E77A
:2B36160000000050080101000400000400030000000100000000001000080000091404008800001400011082008083B8
:2B3641000000000000201002000000000001000000000000000000A0000000000A00000000000000000000000080E61B
:2B366C00000000000000000008180000000000000000000000000000000000000002200000000002000000000880D790
:2B369700000000000000802004090000000000000000000000000000200000000000000002000000000000000000A495
:2B36C200004100000000009000040000000100000000000000000000100000000000000000000010000150000180BA5B
:2B36ED00000000000000000000000000000000000000000000000000100000000001000000000000000000100081E729
:2B371800000000400000800010000000000000000000000000000000010000001000001000000000000000000000BFD6
:2B374300000000000000000000140000000000000000000000000000000000000000000000000000000000004080F790
:2B376E00000000002000000000000000000000000000000000000000008000080000000000000000000000080080ED13
:2B379900000000000000000000000000000000000000000000000000000000000000000000000000000000000080E79E
:2B37C400000000000000000000000000000000000000000000000000000000000000000000000000000000000080E773
:2B37EF00000000000000000000000000000000000000000000000000000000000000000000000000000000000080E748
:2B381A00000000000000000000000000000000000000000000000040000000000400000001000020100220100281E772
:2B384500000000000000008000000000000000000000000000000000000000000000000000000000000000008080E7F1
:2B38700000000000060000080000000000000000000000000000000002188001000002000000000000008001108081F0
:2B389B00000000000000000000000000000000000000000000000000000000000000000000000000000000000080E79B
:2B38C600000000000000000000000000000000000000000000000000000000000000000000000000000000000080E770
:2B38F100000000000000000000000000000000000000000000000000000000000000000000000000000000000080E745
:2B391C00000000000000000000000000000000000000000000000000000000000000000000000000000000000080E719
:2B394700401004411004411004411004411004411004010000000010044110044110044110044110044110044180E7F2
:2B397200601886611886611886611886611886611886010000000018866118866118866118866118866118866180E7CF
:02399D00FFFF2A
:00000001FF
